{
  "contractName": "ZombieAttack",
  "abi": [
    {
      "anonymous": false,
      "inputs": [
        {
          "indexed": false,
          "internalType": "uint256",
          "name": "zombieId",
          "type": "uint256"
        },
        {
          "indexed": false,
          "internalType": "string",
          "name": "name",
          "type": "string"
        },
        {
          "indexed": false,
          "internalType": "uint256",
          "name": "dna",
          "type": "uint256"
        }
      ],
      "name": "NewZombie",
      "type": "event"
    },
    {
      "anonymous": false,
      "inputs": [
        {
          "indexed": true,
          "internalType": "address",
          "name": "previousOwner",
          "type": "address"
        },
        {
          "indexed": true,
          "internalType": "address",
          "name": "newOwner",
          "type": "address"
        }
      ],
      "name": "OwnershipTransferred",
      "type": "event"
    },
    {
      "inputs": [
        {
          "internalType": "uint256",
          "name": "_zombieId",
          "type": "uint256"
        },
        {
          "internalType": "uint256",
          "name": "_newDna",
          "type": "uint256"
        }
      ],
      "name": "changeDna",
      "outputs": [],
      "stateMutability": "nonpayable",
      "type": "function"
    },
    {
      "inputs": [
        {
          "internalType": "uint256",
          "name": "_zombieId",
          "type": "uint256"
        },
        {
          "internalType": "string",
          "name": "_newName",
          "type": "string"
        }
      ],
      "name": "changeName",
      "outputs": [],
      "stateMutability": "nonpayable",
      "type": "function"
    },
    {
      "inputs": [
        {
          "internalType": "string",
          "name": "_name",
          "type": "string"
        }
      ],
      "name": "createRandomZombie",
      "outputs": [],
      "stateMutability": "nonpayable",
      "type": "function"
    },
    {
      "inputs": [],
      "name": "debug1",
      "outputs": [
        {
          "internalType": "string",
          "name": "",
          "type": "string"
        }
      ],
      "stateMutability": "view",
      "type": "function",
      "constant": true
    },
    {
      "inputs": [
        {
          "internalType": "uint256",
          "name": "_zombieId",
          "type": "uint256"
        },
        {
          "internalType": "uint256",
          "name": "_kittyId",
          "type": "uint256"
        }
      ],
      "name": "feedOnKitty",
      "outputs": [],
      "stateMutability": "nonpayable",
      "type": "function"
    },
    {
      "inputs": [
        {
          "internalType": "address",
          "name": "_owner",
          "type": "address"
        }
      ],
      "name": "getZombiesByOwner",
      "outputs": [
        {
          "internalType": "uint256[]",
          "name": "",
          "type": "uint256[]"
        }
      ],
      "stateMutability": "view",
      "type": "function",
      "constant": true
    },
    {
      "inputs": [
        {
          "internalType": "uint256",
          "name": "_zombieId",
          "type": "uint256"
        }
      ],
      "name": "levelUp",
      "outputs": [],
      "stateMutability": "payable",
      "type": "function",
      "payable": true
    },
    {
      "inputs": [],
      "name": "owner",
      "outputs": [
        {
          "internalType": "address payable",
          "name": "",
          "type": "address"
        }
      ],
      "stateMutability": "view",
      "type": "function",
      "constant": true
    },
    {
      "inputs": [
        {
          "internalType": "address",
          "name": "",
          "type": "address"
        }
      ],
      "name": "ownerZombieCount",
      "outputs": [
        {
          "internalType": "uint256",
          "name": "",
          "type": "uint256"
        }
      ],
      "stateMutability": "view",
      "type": "function",
      "constant": true
    },
    {
      "inputs": [
        {
          "internalType": "address",
          "name": "_address",
          "type": "address"
        }
      ],
      "name": "setKittyContractAddress",
      "outputs": [],
      "stateMutability": "nonpayable",
      "type": "function"
    },
    {
      "inputs": [
        {
          "internalType": "uint256",
          "name": "_fee",
          "type": "uint256"
        }
      ],
      "name": "setLevelUpFee",
      "outputs": [],
      "stateMutability": "nonpayable",
      "type": "function"
    },
    {
      "inputs": [
        {
          "internalType": "address payable",
          "name": "newOwner",
          "type": "address"
        }
      ],
      "name": "transferOwnership",
      "outputs": [],
      "stateMutability": "nonpayable",
      "type": "function"
    },
    {
      "inputs": [],
      "name": "withdraw",
      "outputs": [],
      "stateMutability": "nonpayable",
      "type": "function"
    },
    {
      "inputs": [
        {
          "internalType": "uint256",
          "name": "",
          "type": "uint256"
        }
      ],
      "name": "zombieToOwner",
      "outputs": [
        {
          "internalType": "address",
          "name": "",
          "type": "address"
        }
      ],
      "stateMutability": "view",
      "type": "function",
      "constant": true
    },
    {
      "inputs": [
        {
          "internalType": "uint256",
          "name": "",
          "type": "uint256"
        }
      ],
      "name": "zombies",
      "outputs": [
        {
          "internalType": "string",
          "name": "name",
          "type": "string"
        },
        {
          "internalType": "uint256",
          "name": "dna",
          "type": "uint256"
        },
        {
          "internalType": "uint32",
          "name": "level",
          "type": "uint32"
        },
        {
          "internalType": "uint32",
          "name": "readyTime",
          "type": "uint32"
        },
        {
          "internalType": "uint16",
          "name": "winCount",
          "type": "uint16"
        },
        {
          "internalType": "uint16",
          "name": "lossCount",
          "type": "uint16"
        }
      ],
      "stateMutability": "view",
      "type": "function",
      "constant": true
    },
    {
      "inputs": [
        {
          "internalType": "uint256",
          "name": "_zombieId",
          "type": "uint256"
        },
        {
          "internalType": "uint256",
          "name": "_targetId",
          "type": "uint256"
        }
      ],
      "name": "attack",
      "outputs": [],
      "stateMutability": "nonpayable",
      "type": "function"
    }
  ],
  "bytecode": "0x6010600155662386f26fc100006002556201518060035560c0604052600b60808190526a537570657220447562756760a81b60a0908152620000459160049190620000aa565b5066038d7ea4c680006009556000600a8190556046600b5580546001600160a01b03191633178082556040516001600160a01b039190911691907f8be0079c531659141344cd1fd0a4f28419497f9722a3daafe3b4186f6b6457e0908290a36200014f565b828054600181600116156101000203166002900490600052602060002090601f016020900481019282601f10620000ed57805160ff19168380011785556200011d565b828001600101855582156200011d579182015b828111156200011d57825182559160200191906001019062000100565b506200012b9291506200012f565b5090565b6200014c91905b808211156200012b576000815560010162000136565b90565b61133e806200015f6000396000f3fe6080604052600436106100f35760003560e01c80635faf28801161008a578063c39cbef111610059578063c39cbef1146104f3578063ccf670f814610575578063e1fa76381461059f578063f2fde38b146105cf576100f3565b80635faf2880146103735780637bff0a01146103a35780637dc7c5a5146104545780638da5cb5b146104de576100f3565b80633ccfd60b116100c65780633ccfd60b146102625780634412e10414610277578063528b7b8f146102fa5780635f4623f114610340576100f3565b806301afd7e1146100f85780630ce90ec21461013d57806317a7f4cc1461015c5780632052465e1461018c575b600080fd5b34801561010457600080fd5b5061012b6004803603602081101561011b57600080fd5b50356001600160a01b0316610602565b60408051918252519081900360200190f35b61015a6004803603602081101561015357600080fd5b5035610614565b005b34801561016857600080fd5b5061015a6004803603604081101561017f57600080fd5b508035906020013561065f565b34801561019857600080fd5b506101b6600480360360208110156101af57600080fd5b503561070e565b60408051602080820188905263ffffffff80881693830193909352918516606082015261ffff8085166080830152831660a082015260c080825288519082015287519091829160e08301918a019080838360005b8381101561022257818101518382015260200161020a565b50505050905090810190601f16801561024f5780820380516001836020036101000a031916815260200191505b5097505050505050505060405180910390f35b34801561026e57600080fd5b5061015a6107f1565b34801561028357600080fd5b506102aa6004803603602081101561029a57600080fd5b50356001600160a01b0316610845565b60408051602080825283518183015283519192839290830191858101910280838360005b838110156102e65781810151838201526020016102ce565b505050509050019250505060405180910390f35b34801561030657600080fd5b506103246004803603602081101561031d57600080fd5b50356108fa565b604080516001600160a01b039092168252519081900360200190f35b34801561034c57600080fd5b5061015a6004803603602081101561036357600080fd5b50356001600160a01b0316610915565b34801561037f57600080fd5b5061015a6004803603604081101561039657600080fd5b508035906020013561094e565b3480156103af57600080fd5b5061015a600480360360208110156103c657600080fd5b810190602081018135600160201b8111156103e057600080fd5b8201836020820111156103f257600080fd5b803590602001918460018302840111600160201b8311171561041357600080fd5b91908080601f0160208091040260200160405190810160405280939291908181526020018383808284376000920191909152509295506109d3945050505050565b34801561046057600080fd5b50610469610a0e565b6040805160208082528351818301528351919283929083019185019080838360005b838110156104a357818101518382015260200161048b565b50505050905090810190601f1680156104d05780820380516001836020036101000a031916815260200191505b509250505060405180910390f35b3480156104ea57600080fd5b50610324610a9c565b3480156104ff57600080fd5b5061015a6004803603604081101561051657600080fd5b81359190810190604081016020820135600160201b81111561053757600080fd5b82018360208201111561054957600080fd5b803590602001918460018302840111600160201b8311171561056a57600080fd5b509092509050610aab565b34801561058157600080fd5b5061015a6004803603602081101561059857600080fd5b5035610b38565b3480156105ab57600080fd5b5061015a600480360360408110156105c257600080fd5b5080359060200135610b54565b3480156105db57600080fd5b5061015a600480360360208110156105f257600080fd5b50356001600160a01b0316610cd1565b60076020526000908152604090205481565b600954341461062257600080fd5b6005818154811061062f57fe5b60009182526020909120600260039092020101805463ffffffff8082166001011663ffffffff1990911617905550565b6008546040805163e98b7f4d60e01b81526004810184905290516000926001600160a01b03169163e98b7f4d91602480830192610140929190829003018186803b1580156106ac57600080fd5b505afa1580156106c0573d6000803e3d6000fd5b505050506040513d6101408110156106d757600080fd5b5061012001516040805180820190915260058152646b6974747960d81b60208201529091506107099084908390610d56565b505050565b6005818154811061071b57fe5b60009182526020918290206003919091020180546040805160026001841615610100026000190190931692909204601f8101859004850283018501909152808252919350918391908301828280156107b45780601f10610789576101008083540402835291602001916107b4565b820191906000526020600020905b81548152906001019060200180831161079757829003601f168201915b505050600184015460029094015492939263ffffffff8082169350600160201b820416915061ffff600160401b8204811691600160501b90041686565b6000546001600160a01b0316331461080857600080fd5b600080546040516001600160a01b03909116914780156108fc02929091818181858888f19350505050158015610842573d6000803e3d6000fd5b50565b60608060076000846001600160a01b03166001600160a01b0316815260200190815260200160002054604051908082528060200260200182016040528015610897578160200160208202803883390190505b5090506000805b6005548110156108f1576000818152600660205260409020546001600160a01b03868116911614156108e957808383815181106108d757fe5b60209081029190910101526001909101905b60010161089e565b50909392505050565b6006602052600090815260409020546001600160a01b031681565b6000546001600160a01b0316331461092c57600080fd5b600880546001600160a01b0319166001600160a01b0392909216919091179055565b601482816005828154811061095f57fe5b600091825260209091206002600390920201015463ffffffff16101561098457600080fd5b60008481526006602052604090205484906001600160a01b031633146109a957600080fd5b83600586815481106109b757fe5b9060005260206000209060030201600101819055505050505050565b33600090815260076020526040902054156109ed57600080fd5b60006109f882610ead565b9050606481069003610a0a8282610f36565b5050565b6004805460408051602060026001851615610100026000190190941693909304601f81018490048402820184019092528181529291830182828015610a945780601f10610a6957610100808354040283529160200191610a94565b820191906000526020600020905b815481529060010190602001808311610a7757829003601f168201915b505050505081565b6000546001600160a01b031681565b6002838160058281548110610abc57fe5b600091825260209091206002600390920201015463ffffffff161015610ae157600080fd5b60008581526006602052604090205485906001600160a01b03163314610b0657600080fd5b848460058881548110610b1557fe5b60009182526020909120610b2f93600390920201916111ca565b50505050505050565b6000546001600160a01b03163314610b4f57600080fd5b600955565b60008281526006602052604090205482906001600160a01b03163314610b7957600080fd5b600060058481548110610b8857fe5b90600052602060002090600302019050600060058481548110610ba757fe5b906000526020600020906003020190506000610bc36064611134565b9050600b548111610c6c576002808401805463ffffffff600161ffff600160401b8085048216830182160261ffff60401b1990941693909317828116820190921663ffffffff19909216919091179092559184018054600160501b8082048516840190941690930261ffff60501b19909316929092179091558201546040805180820190915260068152657a6f6d62696560d01b6020820152610c67918891610d56565b610cc9565b60028084018054600161ffff600160501b8084048216830182160261ffff60501b19909316929092179092559184018054600160401b808204851690930190931690910261ffff60401b19909216919091179055610cc983611188565b505050505050565b6000546001600160a01b03163314610ce857600080fd5b6001600160a01b038116610cfb57600080fd5b600080546040516001600160a01b03808516939216917f8be0079c531659141344cd1fd0a4f28419497f9722a3daafe3b4186f6b6457e091a3600080546001600160a01b0319166001600160a01b0392909216919091179055565b60008381526006602052604090205483906001600160a01b03163314610d7b57600080fd5b600060058581548110610d8a57fe5b90600052602060002090600302019050610da3816111b2565b610dac57600080fd5b6002548481610db757fe5b069350600060028583600101540181610dcc57fe5b0490506040516020018080646b6974747960d81b815250600501905060405160208183030381529060405280519060200120846040516020018082805190602001908083835b60208310610e315780518252601f199092019160209182019101610e12565b6001836020036101000a038019825116818451168082178552505050505050905001915050604051602081830303815290604052805190602001201415610e7c576064810690036063015b610ea4604051806040016040528060068152602001654e6f4e616d6560d01b81525082610f36565b610cc982611188565b600080826040516020018082805190602001908083835b60208310610ee35780518252601f199092019160209182019101610ec4565b6001836020036101000a0380198251168184511680821785525050505050509050019150506040516020818303038152906040528051906020012060001c90506002548181610f2e57fe5b069392505050565b610f3e611248565b506040805160c0810182528381526020808201849052600192820183905260038054420163ffffffff16606084015260006080840181905260a084018190526005805495860181559052825180519394859492027f036b6384b5eca791c62761152d0c79bb0604c104a5fb6f4eb0703f3154bb3db00192610fc49284929091019061127d565b50602082810151600183810191909155604080850151600290940180546060808801516080808a015160a0909a015163ffffffff1990941663ffffffff998a161767ffffffff000000001916600160201b99909216989098021761ffff60401b1916600160401b61ffff998a16021761ffff60501b1916600160501b9890921697909702179055600554600019016000818152600685528281208054336001600160a01b0319909116811790915581526007855282812080549094019093558151818152918201889052818401868152895196830196909652885190957f88f026aacbbecc90c18411df4b1185fd8d9be2470f1962f192bf84a27d0704b79587958b958b95949285019291870191908190849084905b838110156110f25781810151838201526020016110da565b50505050905090810190601f16801561111f5780820380516001836020036101000a031916815260200191505b5094505050505060405180910390a150505050565b600a80546001019081905560408051426020808301919091523360601b82840152605480830194909452825180830390940184526074909101909152815191012060009082908161118157fe5b0692915050565b60035442018160020160046101000a81548163ffffffff021916908363ffffffff16021790555050565b6002015442600160201b90910463ffffffff16111590565b828054600181600116156101000203166002900490600052602060002090601f016020900481019282601f1061120b5782800160ff19823516178555611238565b82800160010185558215611238579182015b8281111561123857823582559160200191906001019061121d565b506112449291506112eb565b5090565b6040805160c081018252606080825260006020830181905292820183905281018290526080810182905260a081019190915290565b828054600181600116156101000203166002900490600052602060002090601f016020900481019282601f106112be57805160ff1916838001178555611238565b82800160010185558215611238579182015b828111156112385782518255916020019190600101906112d0565b61130591905b8082111561124457600081556001016112f1565b9056fea2646970667358221220c3720c0e090ba4bb62ba486e8e4c5c415661ea19fb3d0efc1d110e67491c099364736f6c63430006000033",
  "source": "pragma solidity >=0.6 <0.9.0;\n\nimport \"./ZombieHelper.sol\";\n\ncontract ZombieAttack is ZombieHelper {\n  uint randNonce = 0;\n  uint attackVictoryProbability = 70;\n\n  function randMod(uint _modulus) internal returns(uint) {\n    randNonce++;\n    return uint(keccak256(abi.encodePacked( block.timestamp, msg.sender, randNonce))) % _modulus;\n  }\n\n  function attack(uint _zombieId, uint _targetId) external onlyOwnerOf(_zombieId) {\n    Zombie storage myZombie = zombies[_zombieId];\n    Zombie storage enemyZombie = zombies[_targetId];\n    uint rand = randMod(100);\n    if (rand <= attackVictoryProbability) {\n      myZombie.winCount++;\n      myZombie.level++;\n      enemyZombie.lossCount++;\n      feedAndMultiply(_zombieId, enemyZombie.dna, \"zombie\");\n    } else {\n      myZombie.lossCount++;\n      enemyZombie.winCount++;\n      _triggerCooldown(myZombie);\n    }\n  }\n}\n",
  "sourcePath": "/Users/ricardoteixeira/Documents/code/solidity/react-zombies/src/solidity/contracts/ZombieAttack.sol",
  "compiler": {
    "name": "solc",
    "version": "0.6.0+commit.26b70077.Emscripten.clang"
  },
  "schemaVersion": "3.3.4",
  "updatedAt": "2021-03-24T02:21:13.944Z",
  "networkType": "ethereum",
  "devdoc": {
    "methods": {
      "transferOwnership(address)": {
        "details": "Allows the current owner to transfer control of the contract to a newOwner.",
        "params": {
          "newOwner": "The address to transfer ownership to."
        }
      }
    }
  },
  "userdoc": {
    "methods": {}
  }
}