{
  "contractName": "ZombieOwnership",
  "abi": [
    {
      "anonymous": false,
      "inputs": [
        {
          "indexed": true,
          "internalType": "address",
          "name": "_owner",
          "type": "address"
        },
        {
          "indexed": true,
          "internalType": "address",
          "name": "_approved",
          "type": "address"
        },
        {
          "indexed": false,
          "internalType": "uint256",
          "name": "_tokenId",
          "type": "uint256"
        }
      ],
      "name": "Approval",
      "type": "event"
    },
    {
      "anonymous": false,
      "inputs": [
        {
          "indexed": false,
          "internalType": "uint256",
          "name": "zombieId",
          "type": "uint256"
        },
        {
          "indexed": false,
          "internalType": "string",
          "name": "name",
          "type": "string"
        },
        {
          "indexed": false,
          "internalType": "uint256",
          "name": "dna",
          "type": "uint256"
        }
      ],
      "name": "NewZombie",
      "type": "event"
    },
    {
      "anonymous": false,
      "inputs": [
        {
          "indexed": true,
          "internalType": "address",
          "name": "previousOwner",
          "type": "address"
        },
        {
          "indexed": true,
          "internalType": "address",
          "name": "newOwner",
          "type": "address"
        }
      ],
      "name": "OwnershipTransferred",
      "type": "event"
    },
    {
      "anonymous": false,
      "inputs": [
        {
          "indexed": true,
          "internalType": "address",
          "name": "_from",
          "type": "address"
        },
        {
          "indexed": true,
          "internalType": "address",
          "name": "_to",
          "type": "address"
        },
        {
          "indexed": false,
          "internalType": "uint256",
          "name": "_tokenId",
          "type": "uint256"
        }
      ],
      "name": "Transfer",
      "type": "event"
    },
    {
      "inputs": [
        {
          "internalType": "uint256",
          "name": "_zombieId",
          "type": "uint256"
        },
        {
          "internalType": "uint256",
          "name": "_targetId",
          "type": "uint256"
        }
      ],
      "name": "attack",
      "outputs": [],
      "stateMutability": "nonpayable",
      "type": "function"
    },
    {
      "inputs": [
        {
          "internalType": "uint256",
          "name": "_zombieId",
          "type": "uint256"
        },
        {
          "internalType": "uint256",
          "name": "_newDna",
          "type": "uint256"
        }
      ],
      "name": "changeDna",
      "outputs": [],
      "stateMutability": "nonpayable",
      "type": "function"
    },
    {
      "inputs": [
        {
          "internalType": "uint256",
          "name": "_zombieId",
          "type": "uint256"
        },
        {
          "internalType": "string",
          "name": "_newName",
          "type": "string"
        }
      ],
      "name": "changeName",
      "outputs": [],
      "stateMutability": "nonpayable",
      "type": "function"
    },
    {
      "inputs": [
        {
          "internalType": "string",
          "name": "_name",
          "type": "string"
        }
      ],
      "name": "createRandomZombie",
      "outputs": [],
      "stateMutability": "nonpayable",
      "type": "function"
    },
    {
      "inputs": [],
      "name": "debug1",
      "outputs": [
        {
          "internalType": "string",
          "name": "",
          "type": "string"
        }
      ],
      "stateMutability": "view",
      "type": "function",
      "constant": true
    },
    {
      "inputs": [
        {
          "internalType": "uint256",
          "name": "_zombieId",
          "type": "uint256"
        },
        {
          "internalType": "uint256",
          "name": "_kittyId",
          "type": "uint256"
        }
      ],
      "name": "feedOnKitty",
      "outputs": [],
      "stateMutability": "nonpayable",
      "type": "function"
    },
    {
      "inputs": [
        {
          "internalType": "address",
          "name": "_owner",
          "type": "address"
        }
      ],
      "name": "getZombiesByOwner",
      "outputs": [
        {
          "internalType": "uint256[]",
          "name": "",
          "type": "uint256[]"
        }
      ],
      "stateMutability": "view",
      "type": "function",
      "constant": true
    },
    {
      "inputs": [
        {
          "internalType": "uint256",
          "name": "_zombieId",
          "type": "uint256"
        }
      ],
      "name": "levelUp",
      "outputs": [],
      "stateMutability": "payable",
      "type": "function",
      "payable": true
    },
    {
      "inputs": [],
      "name": "owner",
      "outputs": [
        {
          "internalType": "address payable",
          "name": "",
          "type": "address"
        }
      ],
      "stateMutability": "view",
      "type": "function",
      "constant": true
    },
    {
      "inputs": [
        {
          "internalType": "address",
          "name": "",
          "type": "address"
        }
      ],
      "name": "ownerZombieCount",
      "outputs": [
        {
          "internalType": "uint256",
          "name": "",
          "type": "uint256"
        }
      ],
      "stateMutability": "view",
      "type": "function",
      "constant": true
    },
    {
      "inputs": [
        {
          "internalType": "address",
          "name": "_address",
          "type": "address"
        }
      ],
      "name": "setKittyContractAddress",
      "outputs": [],
      "stateMutability": "nonpayable",
      "type": "function"
    },
    {
      "inputs": [
        {
          "internalType": "uint256",
          "name": "_fee",
          "type": "uint256"
        }
      ],
      "name": "setLevelUpFee",
      "outputs": [],
      "stateMutability": "nonpayable",
      "type": "function"
    },
    {
      "inputs": [
        {
          "internalType": "address payable",
          "name": "newOwner",
          "type": "address"
        }
      ],
      "name": "transferOwnership",
      "outputs": [],
      "stateMutability": "nonpayable",
      "type": "function"
    },
    {
      "inputs": [],
      "name": "withdraw",
      "outputs": [],
      "stateMutability": "nonpayable",
      "type": "function"
    },
    {
      "inputs": [
        {
          "internalType": "uint256",
          "name": "",
          "type": "uint256"
        }
      ],
      "name": "zombieToOwner",
      "outputs": [
        {
          "internalType": "address",
          "name": "",
          "type": "address"
        }
      ],
      "stateMutability": "view",
      "type": "function",
      "constant": true
    },
    {
      "inputs": [
        {
          "internalType": "uint256",
          "name": "",
          "type": "uint256"
        }
      ],
      "name": "zombies",
      "outputs": [
        {
          "internalType": "string",
          "name": "name",
          "type": "string"
        },
        {
          "internalType": "uint256",
          "name": "dna",
          "type": "uint256"
        },
        {
          "internalType": "uint32",
          "name": "level",
          "type": "uint32"
        },
        {
          "internalType": "uint32",
          "name": "readyTime",
          "type": "uint32"
        },
        {
          "internalType": "uint16",
          "name": "winCount",
          "type": "uint16"
        },
        {
          "internalType": "uint16",
          "name": "lossCount",
          "type": "uint16"
        }
      ],
      "stateMutability": "view",
      "type": "function",
      "constant": true
    },
    {
      "inputs": [
        {
          "internalType": "address",
          "name": "_owner",
          "type": "address"
        }
      ],
      "name": "balanceOf",
      "outputs": [
        {
          "internalType": "uint256",
          "name": "_balance",
          "type": "uint256"
        }
      ],
      "stateMutability": "view",
      "type": "function",
      "constant": true
    },
    {
      "inputs": [
        {
          "internalType": "uint256",
          "name": "_tokenId",
          "type": "uint256"
        }
      ],
      "name": "ownerOf",
      "outputs": [
        {
          "internalType": "address",
          "name": "_owner",
          "type": "address"
        }
      ],
      "stateMutability": "view",
      "type": "function",
      "constant": true
    },
    {
      "inputs": [
        {
          "internalType": "address",
          "name": "_to",
          "type": "address"
        },
        {
          "internalType": "uint256",
          "name": "_tokenId",
          "type": "uint256"
        }
      ],
      "name": "transfer",
      "outputs": [],
      "stateMutability": "nonpayable",
      "type": "function"
    },
    {
      "inputs": [
        {
          "internalType": "address",
          "name": "_to",
          "type": "address"
        },
        {
          "internalType": "uint256",
          "name": "_tokenId",
          "type": "uint256"
        }
      ],
      "name": "approve",
      "outputs": [],
      "stateMutability": "nonpayable",
      "type": "function"
    },
    {
      "inputs": [
        {
          "internalType": "uint256",
          "name": "_tokenId",
          "type": "uint256"
        }
      ],
      "name": "takeOwnership",
      "outputs": [],
      "stateMutability": "nonpayable",
      "type": "function"
    }
  ],
  "bytecode": "0x6010600155662386f26fc100006002556201518060035560c0604052600b60808190526a537570657220447562756760a81b60a0908152620000459160049190620000aa565b5066038d7ea4c680006009556000600a8190556046600b5580546001600160a01b03191633178082556040516001600160a01b039190911691907f8be0079c531659141344cd1fd0a4f28419497f9722a3daafe3b4186f6b6457e0908290a36200014f565b828054600181600116156101000203166002900490600052602060002090601f016020900481019282601f10620000ed57805160ff19168380011785556200011d565b828001600101855582156200011d579182015b828111156200011d57825182559160200191906001019062000100565b506200012b9291506200012f565b5090565b6200014c91905b808211156200012b576000815560010162000136565b90565b611698806200015f6000396000f3fe60806040526004361061012a5760003560e01c80636352211e116100ab578063a9059cbb1161006f578063a9059cbb146105c0578063b2e6ceeb146105f9578063c39cbef114610623578063ccf670f8146106a5578063e1fa7638146106cf578063f2fde38b146106ff5761012a565b80636352211e1461041357806370a082311461043d5780637bff0a01146104705780637dc7c5a5146105215780638da5cb5b146105ab5761012a565b80633ccfd60b116100f25780633ccfd60b146102d25780634412e104146102e7578063528b7b8f1461036a5780635f4623f1146103b05780635faf2880146103e35761012a565b806301afd7e11461012f578063095ea7b3146101745780630ce90ec2146101af57806317a7f4cc146101cc5780632052465e146101fc575b600080fd5b34801561013b57600080fd5b506101626004803603602081101561015257600080fd5b50356001600160a01b0316610732565b60408051918252519081900360200190f35b34801561018057600080fd5b506101ad6004803603604081101561019757600080fd5b506001600160a01b038135169060200135610744565b005b6101ad600480360360208110156101c557600080fd5b50356107d0565b3480156101d857600080fd5b506101ad600480360360408110156101ef57600080fd5b508035906020013561081b565b34801561020857600080fd5b506102266004803603602081101561021f57600080fd5b50356108ca565b60408051602080820188905263ffffffff80881693830193909352918516606082015261ffff8085166080830152831660a082015260c080825288519082015287519091829160e08301918a019080838360005b8381101561029257818101518382015260200161027a565b50505050905090810190601f1680156102bf5780820380516001836020036101000a031916815260200191505b5097505050505050505060405180910390f35b3480156102de57600080fd5b506101ad6109ad565b3480156102f357600080fd5b5061031a6004803603602081101561030a57600080fd5b50356001600160a01b0316610a01565b60408051602080825283518183015283519192839290830191858101910280838360005b8381101561035657818101518382015260200161033e565b505050509050019250505060405180910390f35b34801561037657600080fd5b506103946004803603602081101561038d57600080fd5b5035610ab6565b604080516001600160a01b039092168252519081900360200190f35b3480156103bc57600080fd5b506101ad600480360360208110156103d357600080fd5b50356001600160a01b0316610ad1565b3480156103ef57600080fd5b506101ad6004803603604081101561040657600080fd5b5080359060200135610b0a565b34801561041f57600080fd5b506103946004803603602081101561043657600080fd5b5035610b8f565b34801561044957600080fd5b506101626004803603602081101561046057600080fd5b50356001600160a01b0316610baa565b34801561047c57600080fd5b506101ad6004803603602081101561049357600080fd5b810190602081018135600160201b8111156104ad57600080fd5b8201836020820111156104bf57600080fd5b803590602001918460018302840111600160201b831117156104e057600080fd5b91908080601f016020809104026020016040519081016040528093929190818152602001838380828437600092019190915250929550610bc5945050505050565b34801561052d57600080fd5b50610536610c00565b6040805160208082528351818301528351919283929083019185019080838360005b83811015610570578181015183820152602001610558565b50505050905090810190601f16801561059d5780820380516001836020036101000a031916815260200191505b509250505060405180910390f35b3480156105b757600080fd5b50610394610c8e565b3480156105cc57600080fd5b506101ad600480360360408110156105e357600080fd5b506001600160a01b038135169060200135610c9d565b34801561060557600080fd5b506101ad6004803603602081101561061c57600080fd5b5035610ccd565b34801561062f57600080fd5b506101ad6004803603604081101561064657600080fd5b81359190810190604081016020820135600160201b81111561066757600080fd5b82018360208201111561067957600080fd5b803590602001918460018302840111600160201b8311171561069a57600080fd5b509092509050610d08565b3480156106b157600080fd5b506101ad600480360360208110156106c857600080fd5b5035610d95565b3480156106db57600080fd5b506101ad600480360360408110156106f257600080fd5b5080359060200135610db1565b34801561070b57600080fd5b506101ad6004803603602081101561072257600080fd5b50356001600160a01b0316610f2e565b60076020526000908152604090205481565b60008181526006602052604090205481906001600160a01b0316331461076957600080fd5b6000828152600c602090815260409182902080546001600160a01b0319166001600160a01b03871690811790915582518581529251909233927f8c5be1e5ebec7d5bd14f71427d1e84f3dd0314c0f7b2291e5b200ac8c7c3b92592918290030190a3505050565b60095434146107de57600080fd5b600581815481106107eb57fe5b60009182526020909120600260039092020101805463ffffffff8082166001011663ffffffff1990911617905550565b6008546040805163e98b7f4d60e01b81526004810184905290516000926001600160a01b03169163e98b7f4d91602480830192610140929190829003018186803b15801561086857600080fd5b505afa15801561087c573d6000803e3d6000fd5b505050506040513d61014081101561089357600080fd5b5061012001516040805180820190915260058152646b6974747960d81b60208201529091506108c59084908390610fb3565b505050565b600581815481106108d757fe5b60009182526020918290206003919091020180546040805160026001841615610100026000190190931692909204601f8101859004850283018501909152808252919350918391908301828280156109705780601f1061094557610100808354040283529160200191610970565b820191906000526020600020905b81548152906001019060200180831161095357829003601f168201915b505050600184015460029094015492939263ffffffff8082169350600160201b820416915061ffff600160401b8204811691600160501b90041686565b6000546001600160a01b031633146109c457600080fd5b600080546040516001600160a01b03909116914780156108fc02929091818181858888f193505050501580156109fe573d6000803e3d6000fd5b50565b60608060076000846001600160a01b03166001600160a01b0316815260200190815260200160002054604051908082528060200260200182016040528015610a53578160200160208202803883390190505b5090506000805b600554811015610aad576000818152600660205260409020546001600160a01b0386811691161415610aa55780838381518110610a9357fe5b60209081029190910101526001909101905b600101610a5a565b50909392505050565b6006602052600090815260409020546001600160a01b031681565b6000546001600160a01b03163314610ae857600080fd5b600880546001600160a01b0319166001600160a01b0392909216919091179055565b6014828160058281548110610b1b57fe5b600091825260209091206002600390920201015463ffffffff161015610b4057600080fd5b60008481526006602052604090205484906001600160a01b03163314610b6557600080fd5b8360058681548110610b7357fe5b9060005260206000209060030201600101819055505050505050565b6000908152600660205260409020546001600160a01b031690565b6001600160a01b031660009081526007602052604090205490565b3360009081526007602052604090205415610bdf57600080fd5b6000610bea8261110a565b9050606481069003610bfc8282611193565b5050565b6004805460408051602060026001851615610100026000190190941693909304601f81018490048402820184019092528181529291830182828015610c865780601f10610c5b57610100808354040283529160200191610c86565b820191906000526020600020905b815481529060010190602001808311610c6957829003601f168201915b505050505081565b6000546001600160a01b031681565b60008181526006602052604090205481906001600160a01b03163314610cc257600080fd5b6108c5338484611391565b6000818152600c60205260409020546001600160a01b03163314610cf057600080fd5b6000610cfb82610b8f565b9050610bfc813384611391565b6002838160058281548110610d1957fe5b600091825260209091206002600390920201015463ffffffff161015610d3e57600080fd5b60008581526006602052604090205485906001600160a01b03163314610d6357600080fd5b848460058881548110610d7257fe5b60009182526020909120610d8c9360039092020191611524565b50505050505050565b6000546001600160a01b03163314610dac57600080fd5b600955565b60008281526006602052604090205482906001600160a01b03163314610dd657600080fd5b600060058481548110610de557fe5b90600052602060002090600302019050600060058481548110610e0457fe5b906000526020600020906003020190506000610e206064611466565b9050600b548111610ec9576002808401805463ffffffff600161ffff600160401b8085048216830182160261ffff60401b1990941693909317828116820190921663ffffffff19909216919091179092559184018054600160501b8082048516840190941690930261ffff60501b19909316929092179091558201546040805180820190915260068152657a6f6d62696560d01b6020820152610ec4918891610fb3565b610f26565b60028084018054600161ffff600160501b8084048216830182160261ffff60501b19909316929092179092559184018054600160401b808204851690930190931690910261ffff60401b19909216919091179055610f26836114ba565b505050505050565b6000546001600160a01b03163314610f4557600080fd5b6001600160a01b038116610f5857600080fd5b600080546040516001600160a01b03808516939216917f8be0079c531659141344cd1fd0a4f28419497f9722a3daafe3b4186f6b6457e091a3600080546001600160a01b0319166001600160a01b0392909216919091179055565b60008381526006602052604090205483906001600160a01b03163314610fd857600080fd5b600060058581548110610fe757fe5b90600052602060002090600302019050611000816114e4565b61100957600080fd5b600254848161101457fe5b06935060006002858360010154018161102957fe5b0490506040516020018080646b6974747960d81b815250600501905060405160208183030381529060405280519060200120846040516020018082805190602001908083835b6020831061108e5780518252601f19909201916020918201910161106f565b6001836020036101000a0380198251168184511680821785525050505050509050019150506040516020818303038152906040528051906020012014156110d9576064810690036063015b611101604051806040016040528060068152602001654e6f4e616d6560d01b81525082611193565b610f26826114ba565b600080826040516020018082805190602001908083835b602083106111405780518252601f199092019160209182019101611121565b6001836020036101000a0380198251168184511680821785525050505050509050019150506040516020818303038152906040528051906020012060001c9050600254818161118b57fe5b069392505050565b61119b6115a2565b506040805160c0810182528381526020808201849052600192820183905260038054420163ffffffff16606084015260006080840181905260a084018190526005805495860181559052825180519394859492027f036b6384b5eca791c62761152d0c79bb0604c104a5fb6f4eb0703f3154bb3db00192611221928492909101906115d7565b50602082810151600183810191909155604080850151600290940180546060808801516080808a015160a0909a015163ffffffff1990941663ffffffff998a161767ffffffff000000001916600160201b99909216989098021761ffff60401b1916600160401b61ffff998a16021761ffff60501b1916600160501b9890921697909702179055600554600019016000818152600685528281208054336001600160a01b0319909116811790915581526007855282812080549094019093558151818152918201889052818401868152895196830196909652885190957f88f026aacbbecc90c18411df4b1185fd8d9be2470f1962f192bf84a27d0704b79587958b958b95949285019291870191908190849084905b8381101561134f578181015183820152602001611337565b50505050905090810190601f16801561137c5780820380516001836020036101000a031916815260200191505b5094505050505060405180910390a150505050565b6001600160a01b0382166000908152600760205260409020546113bb90600163ffffffff6114fc16565b6001600160a01b0383166000908152600760205260408082209290925533815220546113ee90600163ffffffff61151216565b33600090815260076020908152604080832093909355838252600681529082902080546001600160a01b0319166001600160a01b03868116918217909255835185815293519093918716927fddf252ad1be2c89b69c2b068fc378daa952ba7f163c4a11628f55a4df523b3ef928290030190a3505050565b600a80546001019081905560408051426020808301919091523360601b8284015260548083019490945282518083039094018452607490910190915281519101206000908290816114b357fe5b0692915050565b60035442018160020160046101000a81548163ffffffff021916908363ffffffff16021790555050565b6002015442600160201b90910463ffffffff16111590565b60008282018381101561150b57fe5b9392505050565b60008282111561151e57fe5b50900390565b828054600181600116156101000203166002900490600052602060002090601f016020900481019282601f106115655782800160ff19823516178555611592565b82800160010185558215611592579182015b82811115611592578235825591602001919060010190611577565b5061159e929150611645565b5090565b6040805160c081018252606080825260006020830181905292820183905281018290526080810182905260a081019190915290565b828054600181600116156101000203166002900490600052602060002090601f016020900481019282601f1061161857805160ff1916838001178555611592565b82800160010185558215611592579182015b8281111561159257825182559160200191906001019061162a565b61165f91905b8082111561159e576000815560010161164b565b9056fea2646970667358221220823d8c38dc77c307cf5fab1e3f0c098ca49aafca3fc4c6ec7437a4e9f0cabc2464736f6c63430006000033",
  "source": "pragma solidity >=0.4.22 <0.9.0;\n\nimport \"./ZombieAttack.sol\";\nimport \"./ERC721.sol\";\nimport \"./SafeMath.sol\";\n\ncontract ZombieOwnership is ZombieAttack, ERC721 {\n\n  using SafeMath for uint256;\n\n  mapping (uint => address) zombieApprovals;\n\n  function balanceOf(address _owner)  public override view returns (uint256 _balance) {\n    return ownerZombieCount[_owner];\n  }\n\n  function ownerOf(uint256 _tokenId)  public override view returns (address _owner) {\n    return zombieToOwner[_tokenId];\n  }\n\n  function _transfer(address _from, address _to, uint256 _tokenId) private {\n    ownerZombieCount[_to] = ownerZombieCount[_to].add(1);\n    ownerZombieCount[msg.sender] = ownerZombieCount[msg.sender].sub(1);\n    zombieToOwner[_tokenId] = _to;\n    emit Transfer(_from, _to, _tokenId);\n  }\n\n  function transfer(address _to, uint256 _tokenId) public override onlyOwnerOf(_tokenId) {\n    _transfer(msg.sender, _to, _tokenId);\n  }\n\n  function approve(address _to, uint256 _tokenId) public override onlyOwnerOf(_tokenId) {\n    zombieApprovals[_tokenId] = _to;\n    emit Approval(msg.sender, _to, _tokenId);\n  }\n\n  function takeOwnership(uint256 _tokenId) public override {\n    require(zombieApprovals[_tokenId] == msg.sender);\n    address owner = ownerOf(_tokenId);\n    _transfer(owner, msg.sender, _tokenId);\n  }\n}\n",
  "sourcePath": "/Users/ricardoteixeira/Documents/code/solidity/react-zombies/src/solidity/contracts/ZombieOwnership.sol",
  "compiler": {
    "name": "solc",
    "version": "0.6.0+commit.26b70077.Emscripten.clang"
  },
  "schemaVersion": "3.3.4",
  "updatedAt": "2021-03-24T02:21:13.948Z",
  "networkType": "ethereum",
  "devdoc": {
    "methods": {
      "transferOwnership(address)": {
        "details": "Allows the current owner to transfer control of the contract to a newOwner.",
        "params": {
          "newOwner": "The address to transfer ownership to."
        }
      }
    }
  },
  "userdoc": {
    "methods": {}
  }
}