{
  "contractName": "ZombieHelper",
  "abi": [
    {
      "anonymous": false,
      "inputs": [
        {
          "indexed": false,
          "internalType": "uint256",
          "name": "zombieId",
          "type": "uint256"
        },
        {
          "indexed": false,
          "internalType": "string",
          "name": "name",
          "type": "string"
        },
        {
          "indexed": false,
          "internalType": "uint256",
          "name": "dna",
          "type": "uint256"
        }
      ],
      "name": "NewZombie",
      "type": "event"
    },
    {
      "anonymous": false,
      "inputs": [
        {
          "indexed": true,
          "internalType": "address",
          "name": "previousOwner",
          "type": "address"
        },
        {
          "indexed": true,
          "internalType": "address",
          "name": "newOwner",
          "type": "address"
        }
      ],
      "name": "OwnershipTransferred",
      "type": "event"
    },
    {
      "inputs": [
        {
          "internalType": "string",
          "name": "_name",
          "type": "string"
        }
      ],
      "name": "createRandomZombie",
      "outputs": [],
      "stateMutability": "nonpayable",
      "type": "function"
    },
    {
      "inputs": [
        {
          "internalType": "uint256",
          "name": "_zombieId",
          "type": "uint256"
        },
        {
          "internalType": "uint256",
          "name": "_kittyId",
          "type": "uint256"
        }
      ],
      "name": "feedOnKitty",
      "outputs": [],
      "stateMutability": "nonpayable",
      "type": "function"
    },
    {
      "inputs": [],
      "name": "owner",
      "outputs": [
        {
          "internalType": "address payable",
          "name": "",
          "type": "address"
        }
      ],
      "stateMutability": "view",
      "type": "function",
      "constant": true
    },
    {
      "inputs": [
        {
          "internalType": "address",
          "name": "",
          "type": "address"
        }
      ],
      "name": "ownerZombieCount",
      "outputs": [
        {
          "internalType": "uint256",
          "name": "",
          "type": "uint256"
        }
      ],
      "stateMutability": "view",
      "type": "function",
      "constant": true
    },
    {
      "inputs": [
        {
          "internalType": "address",
          "name": "_address",
          "type": "address"
        }
      ],
      "name": "setKittyContractAddress",
      "outputs": [],
      "stateMutability": "nonpayable",
      "type": "function"
    },
    {
      "inputs": [
        {
          "internalType": "address payable",
          "name": "newOwner",
          "type": "address"
        }
      ],
      "name": "transferOwnership",
      "outputs": [],
      "stateMutability": "nonpayable",
      "type": "function"
    },
    {
      "inputs": [
        {
          "internalType": "uint256",
          "name": "",
          "type": "uint256"
        }
      ],
      "name": "zombieToOwner",
      "outputs": [
        {
          "internalType": "address",
          "name": "",
          "type": "address"
        }
      ],
      "stateMutability": "view",
      "type": "function",
      "constant": true
    },
    {
      "inputs": [
        {
          "internalType": "uint256",
          "name": "",
          "type": "uint256"
        }
      ],
      "name": "zombies",
      "outputs": [
        {
          "internalType": "string",
          "name": "name",
          "type": "string"
        },
        {
          "internalType": "uint256",
          "name": "dna",
          "type": "uint256"
        },
        {
          "internalType": "uint32",
          "name": "level",
          "type": "uint32"
        },
        {
          "internalType": "uint32",
          "name": "readyTime",
          "type": "uint32"
        },
        {
          "internalType": "uint16",
          "name": "winCount",
          "type": "uint16"
        },
        {
          "internalType": "uint16",
          "name": "lossCount",
          "type": "uint16"
        }
      ],
      "stateMutability": "view",
      "type": "function",
      "constant": true
    },
    {
      "inputs": [],
      "name": "withdraw",
      "outputs": [],
      "stateMutability": "nonpayable",
      "type": "function"
    },
    {
      "inputs": [
        {
          "internalType": "uint256",
          "name": "_fee",
          "type": "uint256"
        }
      ],
      "name": "setLevelUpFee",
      "outputs": [],
      "stateMutability": "nonpayable",
      "type": "function"
    },
    {
      "inputs": [
        {
          "internalType": "uint256",
          "name": "_zombieId",
          "type": "uint256"
        }
      ],
      "name": "levelUp",
      "outputs": [],
      "stateMutability": "payable",
      "type": "function",
      "payable": true
    },
    {
      "inputs": [
        {
          "internalType": "uint256",
          "name": "_zombieId",
          "type": "uint256"
        },
        {
          "internalType": "string",
          "name": "_newName",
          "type": "string"
        }
      ],
      "name": "changeName",
      "outputs": [],
      "stateMutability": "nonpayable",
      "type": "function"
    },
    {
      "inputs": [
        {
          "internalType": "uint256",
          "name": "_zombieId",
          "type": "uint256"
        },
        {
          "internalType": "uint256",
          "name": "_newDna",
          "type": "uint256"
        }
      ],
      "name": "changeDna",
      "outputs": [],
      "stateMutability": "nonpayable",
      "type": "function"
    },
    {
      "inputs": [
        {
          "internalType": "address",
          "name": "_owner",
          "type": "address"
        }
      ],
      "name": "getZombiesByOwner",
      "outputs": [
        {
          "internalType": "uint256[]",
          "name": "",
          "type": "uint256[]"
        }
      ],
      "stateMutability": "view",
      "type": "function",
      "constant": true
    }
  ],
  "bytecode": "0x608060408190526010600155662386f26fc100006002556201518060035566038d7ea4c68000600855600080546001600160a01b03191633178082556001600160a01b0316917f8be0079c531659141344cd1fd0a4f28419497f9722a3daafe3b4186f6b6457e0908290a361101c806100796000396000f3fe6080604052600436106100dd5760003560e01c80635f4623f11161007f5780638da5cb5b116100595780638da5cb5b1461043e578063c39cbef114610453578063ccf670f8146104d5578063f2fde38b146104ff576100dd565b80635f4623f11461032a5780635faf28801461035d5780637bff0a011461038d576100dd565b80632052465e116100bb5780632052465e146101765780633ccfd60b1461024c5780634412e10414610261578063528b7b8f146102e4576100dd565b806301afd7e1146100e25780630ce90ec21461012757806317a7f4cc14610146575b600080fd5b3480156100ee57600080fd5b506101156004803603602081101561010557600080fd5b50356001600160a01b0316610532565b60408051918252519081900360200190f35b6101446004803603602081101561013d57600080fd5b5035610544565b005b34801561015257600080fd5b506101446004803603604081101561016957600080fd5b508035906020013561058f565b34801561018257600080fd5b506101a06004803603602081101561019957600080fd5b503561063e565b60408051602080820188905263ffffffff80881693830193909352918516606082015261ffff8085166080830152831660a082015260c080825288519082015287519091829160e08301918a019080838360005b8381101561020c5781810151838201526020016101f4565b50505050905090810190601f1680156102395780820380516001836020036101000a031916815260200191505b5097505050505050505060405180910390f35b34801561025857600080fd5b50610144610721565b34801561026d57600080fd5b506102946004803603602081101561028457600080fd5b50356001600160a01b0316610775565b60408051602080825283518183015283519192839290830191858101910280838360005b838110156102d05781810151838201526020016102b8565b505050509050019250505060405180910390f35b3480156102f057600080fd5b5061030e6004803603602081101561030757600080fd5b503561082a565b604080516001600160a01b039092168252519081900360200190f35b34801561033657600080fd5b506101446004803603602081101561034d57600080fd5b50356001600160a01b0316610845565b34801561036957600080fd5b506101446004803603604081101561038057600080fd5b508035906020013561087e565b34801561039957600080fd5b50610144600480360360208110156103b057600080fd5b810190602081018135600160201b8111156103ca57600080fd5b8201836020820111156103dc57600080fd5b803590602001918460018302840111600160201b831117156103fd57600080fd5b91908080601f016020809104026020016040519081016040528093929190818152602001838380828437600092019190915250929550610903945050505050565b34801561044a57600080fd5b5061030e61093e565b34801561045f57600080fd5b506101446004803603604081101561047657600080fd5b81359190810190604081016020820135600160201b81111561049757600080fd5b8201836020820111156104a957600080fd5b803590602001918460018302840111600160201b831117156104ca57600080fd5b50909250905061094d565b3480156104e157600080fd5b50610144600480360360208110156104f857600080fd5b50356109da565b34801561050b57600080fd5b506101446004803603602081101561052257600080fd5b50356001600160a01b03166109f6565b60066020526000908152604090205481565b600854341461055257600080fd5b6004818154811061055f57fe5b60009182526020909120600260039092020101805463ffffffff8082166001011663ffffffff1990911617905550565b6007546040805163e98b7f4d60e01b81526004810184905290516000926001600160a01b03169163e98b7f4d91602480830192610140929190829003018186803b1580156105dc57600080fd5b505afa1580156105f0573d6000803e3d6000fd5b505050506040513d61014081101561060757600080fd5b5061012001516040805180820190915260058152646b6974747960d81b60208201529091506106399084908390610a7b565b505050565b6004818154811061064b57fe5b60009182526020918290206003919091020180546040805160026001841615610100026000190190931692909204601f8101859004850283018501909152808252919350918391908301828280156106e45780601f106106b9576101008083540402835291602001916106e4565b820191906000526020600020905b8154815290600101906020018083116106c757829003601f168201915b505050600184015460029094015492939263ffffffff8082169350600160201b820416915061ffff600160401b8204811691600160501b90041686565b6000546001600160a01b0316331461073857600080fd5b600080546040516001600160a01b03909116914780156108fc02929091818181858888f19350505050158015610772573d6000803e3d6000fd5b50565b60608060066000846001600160a01b03166001600160a01b03168152602001908152602001600020546040519080825280602002602001820160405280156107c7578160200160208202803883390190505b5090506000805b600454811015610821576000818152600560205260409020546001600160a01b0386811691161415610819578083838151811061080757fe5b60209081029190910101526001909101905b6001016107ce565b50909392505050565b6005602052600090815260409020546001600160a01b031681565b6000546001600160a01b0316331461085c57600080fd5b600780546001600160a01b0319166001600160a01b0392909216919091179055565b601482816004828154811061088f57fe5b600091825260209091206002600390920201015463ffffffff1610156108b457600080fd5b60008481526005602052604090205484906001600160a01b031633146108d957600080fd5b83600486815481106108e757fe5b9060005260206000209060030201600101819055505050505050565b336000908152600660205260409020541561091d57600080fd5b600061092882610bda565b905060648106900361093a8282610c63565b5050565b6000546001600160a01b031681565b600283816004828154811061095e57fe5b600091825260209091206002600390920201015463ffffffff16101561098357600080fd5b60008581526005602052604090205485906001600160a01b031633146109a857600080fd5b8484600488815481106109b757fe5b600091825260209091206109d19360039092020191610ea8565b50505050505050565b6000546001600160a01b031633146109f157600080fd5b600855565b6000546001600160a01b03163314610a0d57600080fd5b6001600160a01b038116610a2057600080fd5b600080546040516001600160a01b03808516939216917f8be0079c531659141344cd1fd0a4f28419497f9722a3daafe3b4186f6b6457e091a3600080546001600160a01b0319166001600160a01b0392909216919091179055565b60008381526005602052604090205483906001600160a01b03163314610aa057600080fd5b600060048581548110610aaf57fe5b90600052602060002090600302019050610ac881610e66565b610ad157600080fd5b6002548481610adc57fe5b069350600060028583600101540181610af157fe5b0490506040516020018080646b6974747960d81b815250600501905060405160208183030381529060405280519060200120846040516020018082805190602001908083835b60208310610b565780518252601f199092019160209182019101610b37565b6001836020036101000a038019825116818451168082178552505050505050905001915050604051602081830303815290604052805190602001201415610ba1576064810690036063015b610bc9604051806040016040528060068152602001654e6f4e616d6560d01b81525082610c63565b610bd282610e7e565b505050505050565b600080826040516020018082805190602001908083835b60208310610c105780518252601f199092019160209182019101610bf1565b6001836020036101000a0380198251168184511680821785525050505050509050019150506040516020818303038152906040528051906020012060001c90506002548181610c5b57fe5b069392505050565b610c6b610f26565b506040805160c0810182528381526020808201849052600192820183905260038054420163ffffffff16606084015260006080840181905260a084018190526004805495860181559052825180519394859492027f8a35acfbc15ff81a39ae7d344fd709f28e8600b4aa8c65c6b64bfe7fe36bd19b0192610cf192849290910190610f5b565b50602082810151600183810191909155604080850151600290940180546060808801516080808a015160a0909a015163ffffffff1990941663ffffffff998a161767ffffffff000000001916600160201b99909216989098021769ffff00000000000000001916600160401b61ffff998a16021761ffff60501b1916600160501b9890921697909702179055600454600019016000818152600585528281208054336001600160a01b0319909116811790915581526006855282812080549094019093558151818152918201889052818401868152895196830196909652885190957f88f026aacbbecc90c18411df4b1185fd8d9be2470f1962f192bf84a27d0704b79587958b958b95949285019291870191908190849084905b83811015610e24578181015183820152602001610e0c565b50505050905090810190601f168015610e515780820380516001836020036101000a031916815260200191505b5094505050505060405180910390a150505050565b6002015442600160201b90910463ffffffff16111590565b60035442018160020160046101000a81548163ffffffff021916908363ffffffff16021790555050565b828054600181600116156101000203166002900490600052602060002090601f016020900481019282601f10610ee95782800160ff19823516178555610f16565b82800160010185558215610f16579182015b82811115610f16578235825591602001919060010190610efb565b50610f22929150610fc9565b5090565b6040805160c081018252606080825260006020830181905292820183905281018290526080810182905260a081019190915290565b828054600181600116156101000203166002900490600052602060002090601f016020900481019282601f10610f9c57805160ff1916838001178555610f16565b82800160010185558215610f16579182015b82811115610f16578251825591602001919060010190610fae565b610fe391905b80821115610f225760008155600101610fcf565b9056fea26469706673582212202500186f0f7813fd6999ac075595b03122fc98261b31eafc9664a5fb8232db7864736f6c63430006000033",
  "source": "pragma solidity >=0.4.22 <0.9.0;\n\nimport \"./ZombieFeeding.sol\";\n\ncontract ZombieHelper is ZombieFeeding {\n\n  uint levelUpFee = 0.001 ether;\n\n  modifier aboveLevel(uint _level, uint _zombieId) {\n    require(zombies[_zombieId].level >= _level);\n    _;\n  }\n\n  function withdraw() external onlyOwner {\n    owner.transfer(address(this).balance);\n  }\n\n  function setLevelUpFee(uint _fee) external onlyOwner {\n    levelUpFee = _fee;\n  }\n\n  function levelUp(uint _zombieId) external payable {\n    require(msg.value == levelUpFee);\n    zombies[_zombieId].level++;\n  }\n\n  function changeName(uint _zombieId, string calldata _newName ) external aboveLevel(2, _zombieId) onlyOwnerOf(_zombieId) {\n    zombies[_zombieId].name = _newName;\n  }\n\n  function changeDna(uint _zombieId, uint _newDna) external aboveLevel(20, _zombieId) onlyOwnerOf(_zombieId) {\n    zombies[_zombieId].dna = _newDna;\n  }\n\n  function getZombiesByOwner(address _owner) external view returns(uint[] memory) {\n    uint[] memory result = new uint[](ownerZombieCount[_owner]);\n    uint counter = 0;\n    for (uint i = 0; i < zombies.length; i++) {\n      if (zombieToOwner[i] == _owner) {\n        result[counter] = i;\n        counter++;\n      }\n    }\n    return result;\n  }\n\n}\n",
  "sourcePath": "/Users/ricardoteixeira/Documents/code/solidity/react-zombies/src/solidity/contracts/ZombieHelper.sol",
  "compiler": {
    "name": "solc",
    "version": "0.6.0+commit.26b70077.Emscripten.clang"
  },
  "schemaVersion": "3.3.4",
  "updatedAt": "2021-03-23T01:52:26.095Z",
  "networkType": "ethereum",
  "devdoc": {
    "methods": {
      "transferOwnership(address)": {
        "details": "Allows the current owner to transfer control of the contract to a newOwner.",
        "params": {
          "newOwner": "The address to transfer ownership to."
        }
      }
    }
  },
  "userdoc": {
    "methods": {}
  }
}