{
  "contractName": "ZombieFeeding",
  "abi": [
    {
      "anonymous": false,
      "inputs": [
        {
          "indexed": false,
          "internalType": "uint256",
          "name": "zombieId",
          "type": "uint256"
        },
        {
          "indexed": false,
          "internalType": "string",
          "name": "name",
          "type": "string"
        },
        {
          "indexed": false,
          "internalType": "uint256",
          "name": "dna",
          "type": "uint256"
        }
      ],
      "name": "NewZombie",
      "type": "event"
    },
    {
      "anonymous": false,
      "inputs": [
        {
          "indexed": true,
          "internalType": "address",
          "name": "previousOwner",
          "type": "address"
        },
        {
          "indexed": true,
          "internalType": "address",
          "name": "newOwner",
          "type": "address"
        }
      ],
      "name": "OwnershipTransferred",
      "type": "event"
    },
    {
      "inputs": [
        {
          "internalType": "string",
          "name": "_name",
          "type": "string"
        }
      ],
      "name": "createRandomZombie",
      "outputs": [],
      "stateMutability": "nonpayable",
      "type": "function"
    },
    {
      "inputs": [],
      "name": "owner",
      "outputs": [
        {
          "internalType": "address payable",
          "name": "",
          "type": "address"
        }
      ],
      "stateMutability": "view",
      "type": "function"
    },
    {
      "inputs": [
        {
          "internalType": "address payable",
          "name": "newOwner",
          "type": "address"
        }
      ],
      "name": "transferOwnership",
      "outputs": [],
      "stateMutability": "nonpayable",
      "type": "function"
    },
    {
      "inputs": [
        {
          "internalType": "uint256",
          "name": "",
          "type": "uint256"
        }
      ],
      "name": "zombieToOwner",
      "outputs": [
        {
          "internalType": "address",
          "name": "",
          "type": "address"
        }
      ],
      "stateMutability": "view",
      "type": "function"
    },
    {
      "inputs": [
        {
          "internalType": "uint256",
          "name": "",
          "type": "uint256"
        }
      ],
      "name": "zombies",
      "outputs": [
        {
          "internalType": "string",
          "name": "name",
          "type": "string"
        },
        {
          "internalType": "uint256",
          "name": "dna",
          "type": "uint256"
        },
        {
          "internalType": "uint32",
          "name": "level",
          "type": "uint32"
        },
        {
          "internalType": "uint32",
          "name": "readyTime",
          "type": "uint32"
        },
        {
          "internalType": "uint16",
          "name": "winCount",
          "type": "uint16"
        },
        {
          "internalType": "uint16",
          "name": "lossCount",
          "type": "uint16"
        }
      ],
      "stateMutability": "view",
      "type": "function"
    },
    {
      "inputs": [
        {
          "internalType": "address",
          "name": "_address",
          "type": "address"
        }
      ],
      "name": "setKittyContractAddress",
      "outputs": [],
      "stateMutability": "nonpayable",
      "type": "function"
    },
    {
      "inputs": [
        {
          "internalType": "uint256",
          "name": "_zombieId",
          "type": "uint256"
        },
        {
          "internalType": "uint256",
          "name": "_kittyId",
          "type": "uint256"
        }
      ],
      "name": "feedOnKitty",
      "outputs": [],
      "stateMutability": "nonpayable",
      "type": "function"
    }
  ],
  "bytecode": "0x608060408190526010600155662386f26fc1000060025562015180600355600080546001600160a01b03191633178082556001600160a01b0316917f8be0079c531659141344cd1fd0a4f28419497f9722a3daafe3b4186f6b6457e0908290a3610a8e8061006e6000396000f3fe608060405234801561001057600080fd5b506004361061007d5760003560e01c80635f4623f11161005b5780635f4623f1146101a95780637bff0a01146101cf5780638da5cb5b14610275578063f2fde38b1461027d5761007d565b806317a7f4cc146100825780632052465e146100a7578063528b7b8f14610170575b600080fd5b6100a56004803603604081101561009857600080fd5b50803590602001356102a3565b005b6100c4600480360360208110156100bd57600080fd5b5035610352565b60408051602080820188905263ffffffff80881693830193909352918516606082015261ffff8085166080830152831660a082015260c080825288519082015287519091829160e08301918a019080838360005b83811015610130578181015183820152602001610118565b50505050905090810190601f16801561015d5780820380516001836020036101000a031916815260200191505b5097505050505050505060405180910390f35b61018d6004803603602081101561018657600080fd5b5035610436565b604080516001600160a01b039092168252519081900360200190f35b6100a5600480360360208110156101bf57600080fd5b50356001600160a01b0316610451565b6100a5600480360360208110156101e557600080fd5b81019060208101813564010000000081111561020057600080fd5b82018360208201111561021257600080fd5b8035906020019184600183028401116401000000008311171561023457600080fd5b91908080601f01602080910402602001604051908101604052809392919081815260200183838082843760009201919091525092955061048a945050505050565b61018d6104c5565b6100a56004803603602081101561029357600080fd5b50356001600160a01b03166104d4565b6007546040805163e98b7f4d60e01b81526004810184905290516000926001600160a01b03169163e98b7f4d91602480830192610140929190829003018186803b1580156102f057600080fd5b505afa158015610304573d6000803e3d6000fd5b505050506040513d61014081101561031b57600080fd5b5061012001516040805180820190915260058152646b6974747960d81b602082015290915061034d9084908390610559565b505050565b6004818154811061035f57fe5b60009182526020918290206003919091020180546040805160026001841615610100026000190190931692909204601f8101859004850283018501909152808252919350918391908301828280156103f85780601f106103cd576101008083540402835291602001916103f8565b820191906000526020600020905b8154815290600101906020018083116103db57829003601f168201915b505050600184015460029094015492939263ffffffff8082169350640100000000820416915061ffff600160401b8204811691600160501b90041686565b6005602052600090815260409020546001600160a01b031681565b6000546001600160a01b0316331461046857600080fd5b600780546001600160a01b0319166001600160a01b0392909216919091179055565b33600090815260066020526040902054156104a457600080fd5b60006104af826106b8565b90506064810690036104c18282610741565b5050565b6000546001600160a01b031681565b6000546001600160a01b031633146104eb57600080fd5b6001600160a01b0381166104fe57600080fd5b600080546040516001600160a01b03808516939216917f8be0079c531659141344cd1fd0a4f28419497f9722a3daafe3b4186f6b6457e091a3600080546001600160a01b0319166001600160a01b0392909216919091179055565b60008381526005602052604090205483906001600160a01b0316331461057e57600080fd5b60006004858154811061058d57fe5b906000526020600020906003020190506105a681610945565b6105af57600080fd5b60025484816105ba57fe5b0693506000600285836001015401816105cf57fe5b0490506040516020018080646b6974747960d81b815250600501905060405160208183030381529060405280519060200120846040516020018082805190602001908083835b602083106106345780518252601f199092019160209182019101610615565b6001836020036101000a03801982511681845116808217855250505050505090500191505060405160208183030381529060405280519060200120141561067f576064810690036063015b6106a7604051806040016040528060068152602001654e6f4e616d6560d01b81525082610741565b6106b08261095e565b505050505050565b600080826040516020018082805190602001908083835b602083106106ee5780518252601f1990920191602091820191016106cf565b6001836020036101000a0380198251168184511680821785525050505050509050019150506040516020818303038152906040528051906020012060001c9050600254818161073957fe5b069392505050565b610749610988565b506040805160c0810182528381526020808201849052600192820183905260038054420163ffffffff16606084015260006080840181905260a084018190526004805495860181559052825180519394859492027f8a35acfbc15ff81a39ae7d344fd709f28e8600b4aa8c65c6b64bfe7fe36bd19b01926107cf928492909101906109bd565b50602082810151600183810191909155604080850151600290940180546060808801516080808a015160a0909a015163ffffffff1990941663ffffffff998a161767ffffffff00000000191664010000000099909216989098021769ffff00000000000000001916600160401b61ffff998a16021761ffff60501b1916600160501b9890921697909702179055600454600019016000818152600585528281208054336001600160a01b0319909116811790915581526006855282812080549094019093558151818152918201889052818401868152895196830196909652885190957f88f026aacbbecc90c18411df4b1185fd8d9be2470f1962f192bf84a27d0704b79587958b958b95949285019291870191908190849084905b838110156109035781810151838201526020016108eb565b50505050905090810190601f1680156109305780820380516001836020036101000a031916815260200191505b5094505050505060405180910390a150505050565b600201544264010000000090910463ffffffff16111590565b60035442018160020160046101000a81548163ffffffff021916908363ffffffff16021790555050565b6040805160c081018252606080825260006020830181905292820183905281018290526080810182905260a081019190915290565b828054600181600116156101000203166002900490600052602060002090601f016020900481019282601f106109fe57805160ff1916838001178555610a2b565b82800160010185558215610a2b579182015b82811115610a2b578251825591602001919060010190610a10565b50610a37929150610a3b565b5090565b610a5591905b80821115610a375760008155600101610a41565b9056fea264697066735822122010e497a0c81864c64a0d1591a99df7acd777b245d7f4a3cc9d4df13e6516972464736f6c63430006000033",
  "source": "pragma solidity >=0.6 <0.9.0;\n\nimport \"./ZombieFactory.sol\";\n\nabstract contract KittyInterface {\n   function getKitty(uint256 _id) virtual external view returns (\n    bool isGestating,\n    bool isReady,\n    uint256 cooldownIndex,\n    uint256 nextActionAt,\n    uint256 siringWithId,\n    uint256 birthTime,\n    uint256 matronId,\n    uint256 sireId,\n    uint256 generation,\n    uint256 genes\n  );\n}\n\ncontract ZombieFeeding is ZombieFactory {\n\n  KittyInterface kittyContract;\n\n  modifier onlyOwnerOf(uint _zombieId) {\n    require(msg.sender == zombieToOwner[_zombieId]);\n    _;\n  }\n\n  function setKittyContractAddress(address _address) external onlyOwner {\n    kittyContract = KittyInterface(_address);\n  }\n\n  function _triggerCooldown(Zombie storage _zombie) internal {\n    _zombie.readyTime = uint32(block.timestamp + cooldownTime);\n  }\n\n  function _isReady(Zombie storage _zombie) internal view returns (bool) {\n      return (_zombie.readyTime <= block.timestamp);\n  }\n\n  function feedAndMultiply(uint _zombieId, uint _targetDna, string memory _species) internal onlyOwnerOf(_zombieId) {\n    Zombie storage myZombie = zombies[_zombieId];\n    require(_isReady(myZombie));\n    _targetDna = _targetDna % dnaModulus;\n    uint newDna = (myZombie.dna + _targetDna) / 2;\n    if (keccak256(abi.encodePacked(_species)) == keccak256(abi.encodePacked(\"kitty\"))) {\n      newDna = newDna - newDna % 100 + 99;\n    }\n    _createZombie(\"NoName\", newDna);\n    _triggerCooldown(myZombie);\n  }\n\n  function feedOnKitty(uint _zombieId, uint _kittyId) public {\n    uint kittyDna;\n    (,,,,,,,,,kittyDna) = kittyContract.getKitty(_kittyId);\n    feedAndMultiply(_zombieId, kittyDna, \"kitty\");\n  }\n}\n",
  "sourcePath": "/Users/ricardoteixeira/Documents/code/solidity/react-zombies/src/solidity/contracts/ZombieFeeding.sol",
  "compiler": {
    "name": "solc",
    "version": "0.6.0+commit.26b70077.Emscripten.clang"
  },
  "schemaVersion": "3.3.4",
  "updatedAt": "2021-03-22T23:26:30.150Z",
  "devdoc": {
    "methods": {
      "transferOwnership(address)": {
        "details": "Allows the current owner to transfer control of the contract to a newOwner.",
        "params": {
          "newOwner": "The address to transfer ownership to."
        }
      }
    }
  },
  "userdoc": {
    "methods": {}
  }
}