{
  "contractName": "ZombieAttack",
  "abi": [
    {
      "anonymous": false,
      "inputs": [
        {
          "indexed": false,
          "internalType": "uint256",
          "name": "zombieId",
          "type": "uint256"
        },
        {
          "indexed": false,
          "internalType": "string",
          "name": "name",
          "type": "string"
        },
        {
          "indexed": false,
          "internalType": "uint256",
          "name": "dna",
          "type": "uint256"
        }
      ],
      "name": "NewZombie",
      "type": "event"
    },
    {
      "anonymous": false,
      "inputs": [
        {
          "indexed": true,
          "internalType": "address",
          "name": "previousOwner",
          "type": "address"
        },
        {
          "indexed": true,
          "internalType": "address",
          "name": "newOwner",
          "type": "address"
        }
      ],
      "name": "OwnershipTransferred",
      "type": "event"
    },
    {
      "inputs": [
        {
          "internalType": "uint256",
          "name": "_zombieId",
          "type": "uint256"
        },
        {
          "internalType": "uint256",
          "name": "_newDna",
          "type": "uint256"
        }
      ],
      "name": "changeDna",
      "outputs": [],
      "stateMutability": "nonpayable",
      "type": "function"
    },
    {
      "inputs": [
        {
          "internalType": "uint256",
          "name": "_zombieId",
          "type": "uint256"
        },
        {
          "internalType": "string",
          "name": "_newName",
          "type": "string"
        }
      ],
      "name": "changeName",
      "outputs": [],
      "stateMutability": "nonpayable",
      "type": "function"
    },
    {
      "inputs": [
        {
          "internalType": "string",
          "name": "_name",
          "type": "string"
        }
      ],
      "name": "createRandomZombie",
      "outputs": [],
      "stateMutability": "nonpayable",
      "type": "function"
    },
    {
      "inputs": [
        {
          "internalType": "uint256",
          "name": "_zombieId",
          "type": "uint256"
        },
        {
          "internalType": "uint256",
          "name": "_kittyId",
          "type": "uint256"
        }
      ],
      "name": "feedOnKitty",
      "outputs": [],
      "stateMutability": "nonpayable",
      "type": "function"
    },
    {
      "inputs": [
        {
          "internalType": "address",
          "name": "_owner",
          "type": "address"
        }
      ],
      "name": "getZombiesByOwner",
      "outputs": [
        {
          "internalType": "uint256[]",
          "name": "",
          "type": "uint256[]"
        }
      ],
      "stateMutability": "view",
      "type": "function"
    },
    {
      "inputs": [
        {
          "internalType": "uint256",
          "name": "_zombieId",
          "type": "uint256"
        }
      ],
      "name": "levelUp",
      "outputs": [],
      "stateMutability": "payable",
      "type": "function"
    },
    {
      "inputs": [],
      "name": "owner",
      "outputs": [
        {
          "internalType": "address payable",
          "name": "",
          "type": "address"
        }
      ],
      "stateMutability": "view",
      "type": "function"
    },
    {
      "inputs": [
        {
          "internalType": "address",
          "name": "_address",
          "type": "address"
        }
      ],
      "name": "setKittyContractAddress",
      "outputs": [],
      "stateMutability": "nonpayable",
      "type": "function"
    },
    {
      "inputs": [
        {
          "internalType": "uint256",
          "name": "_fee",
          "type": "uint256"
        }
      ],
      "name": "setLevelUpFee",
      "outputs": [],
      "stateMutability": "nonpayable",
      "type": "function"
    },
    {
      "inputs": [
        {
          "internalType": "address payable",
          "name": "newOwner",
          "type": "address"
        }
      ],
      "name": "transferOwnership",
      "outputs": [],
      "stateMutability": "nonpayable",
      "type": "function"
    },
    {
      "inputs": [],
      "name": "withdraw",
      "outputs": [],
      "stateMutability": "nonpayable",
      "type": "function"
    },
    {
      "inputs": [
        {
          "internalType": "uint256",
          "name": "",
          "type": "uint256"
        }
      ],
      "name": "zombieToOwner",
      "outputs": [
        {
          "internalType": "address",
          "name": "",
          "type": "address"
        }
      ],
      "stateMutability": "view",
      "type": "function"
    },
    {
      "inputs": [
        {
          "internalType": "uint256",
          "name": "",
          "type": "uint256"
        }
      ],
      "name": "zombies",
      "outputs": [
        {
          "internalType": "string",
          "name": "name",
          "type": "string"
        },
        {
          "internalType": "uint256",
          "name": "dna",
          "type": "uint256"
        },
        {
          "internalType": "uint32",
          "name": "level",
          "type": "uint32"
        },
        {
          "internalType": "uint32",
          "name": "readyTime",
          "type": "uint32"
        },
        {
          "internalType": "uint16",
          "name": "winCount",
          "type": "uint16"
        },
        {
          "internalType": "uint16",
          "name": "lossCount",
          "type": "uint16"
        }
      ],
      "stateMutability": "view",
      "type": "function"
    },
    {
      "inputs": [
        {
          "internalType": "uint256",
          "name": "_zombieId",
          "type": "uint256"
        },
        {
          "internalType": "uint256",
          "name": "_targetId",
          "type": "uint256"
        }
      ],
      "name": "attack",
      "outputs": [],
      "stateMutability": "nonpayable",
      "type": "function"
    }
  ],
  "bytecode": "0x608060408190526010600155662386f26fc100006002556201518060035566038d7ea4c68000600855600060098190556046600a5580546001600160a01b03191633178082556001600160a01b0316917f8be0079c531659141344cd1fd0a4f28419497f9722a3daafe3b4186f6b6457e0908290a36111b9806100836000396000f3fe6080604052600436106100dd5760003560e01c80635faf28801161007f578063c39cbef111610059578063c39cbef11461040e578063ccf670f814610490578063e1fa7638146104ba578063f2fde38b146104ea576100dd565b80635faf2880146103185780637bff0a01146103485780638da5cb5b146103f9576100dd565b80633ccfd60b116100bb5780633ccfd60b146102075780634412e1041461021c578063528b7b8f1461029f5780635f4623f1146102e5576100dd565b80630ce90ec2146100e257806317a7f4cc146101015780632052465e14610131575b600080fd5b6100ff600480360360208110156100f857600080fd5b503561051d565b005b34801561010d57600080fd5b506100ff6004803603604081101561012457600080fd5b5080359060200135610568565b34801561013d57600080fd5b5061015b6004803603602081101561015457600080fd5b5035610617565b60408051602080820188905263ffffffff80881693830193909352918516606082015261ffff8085166080830152831660a082015260c080825288519082015287519091829160e08301918a019080838360005b838110156101c75781810151838201526020016101af565b50505050905090810190601f1680156101f45780820380516001836020036101000a031916815260200191505b5097505050505050505060405180910390f35b34801561021357600080fd5b506100ff6106fa565b34801561022857600080fd5b5061024f6004803603602081101561023f57600080fd5b50356001600160a01b031661074e565b60408051602080825283518183015283519192839290830191858101910280838360005b8381101561028b578181015183820152602001610273565b505050509050019250505060405180910390f35b3480156102ab57600080fd5b506102c9600480360360208110156102c257600080fd5b5035610803565b604080516001600160a01b039092168252519081900360200190f35b3480156102f157600080fd5b506100ff6004803603602081101561030857600080fd5b50356001600160a01b031661081e565b34801561032457600080fd5b506100ff6004803603604081101561033b57600080fd5b5080359060200135610857565b34801561035457600080fd5b506100ff6004803603602081101561036b57600080fd5b810190602081018135600160201b81111561038557600080fd5b82018360208201111561039757600080fd5b803590602001918460018302840111600160201b831117156103b857600080fd5b91908080601f0160208091040260200160405190810160405280939291908181526020018383808284376000920191909152509295506108dc945050505050565b34801561040557600080fd5b506102c9610917565b34801561041a57600080fd5b506100ff6004803603604081101561043157600080fd5b81359190810190604081016020820135600160201b81111561045257600080fd5b82018360208201111561046457600080fd5b803590602001918460018302840111600160201b8311171561048557600080fd5b509092509050610926565b34801561049c57600080fd5b506100ff600480360360208110156104b357600080fd5b50356109b3565b3480156104c657600080fd5b506100ff600480360360408110156104dd57600080fd5b50803590602001356109cf565b3480156104f657600080fd5b506100ff6004803603602081101561050d57600080fd5b50356001600160a01b0316610b4c565b600854341461052b57600080fd5b6004818154811061053857fe5b60009182526020909120600260039092020101805463ffffffff8082166001011663ffffffff1990911617905550565b6007546040805163e98b7f4d60e01b81526004810184905290516000926001600160a01b03169163e98b7f4d91602480830192610140929190829003018186803b1580156105b557600080fd5b505afa1580156105c9573d6000803e3d6000fd5b505050506040513d6101408110156105e057600080fd5b5061012001516040805180820190915260058152646b6974747960d81b60208201529091506106129084908390610bd1565b505050565b6004818154811061062457fe5b60009182526020918290206003919091020180546040805160026001841615610100026000190190931692909204601f8101859004850283018501909152808252919350918391908301828280156106bd5780601f10610692576101008083540402835291602001916106bd565b820191906000526020600020905b8154815290600101906020018083116106a057829003601f168201915b505050600184015460029094015492939263ffffffff8082169350600160201b820416915061ffff600160401b8204811691600160501b90041686565b6000546001600160a01b0316331461071157600080fd5b600080546040516001600160a01b03909116914780156108fc02929091818181858888f1935050505015801561074b573d6000803e3d6000fd5b50565b60608060066000846001600160a01b03166001600160a01b03168152602001908152602001600020546040519080825280602002602001820160405280156107a0578160200160208202803883390190505b5090506000805b6004548110156107fa576000818152600560205260409020546001600160a01b03868116911614156107f257808383815181106107e057fe5b60209081029190910101526001909101905b6001016107a7565b50909392505050565b6005602052600090815260409020546001600160a01b031681565b6000546001600160a01b0316331461083557600080fd5b600780546001600160a01b0319166001600160a01b0392909216919091179055565b601482816004828154811061086857fe5b600091825260209091206002600390920201015463ffffffff16101561088d57600080fd5b60008481526005602052604090205484906001600160a01b031633146108b257600080fd5b83600486815481106108c057fe5b9060005260206000209060030201600101819055505050505050565b33600090815260066020526040902054156108f657600080fd5b600061090182610d28565b90506064810690036109138282610db1565b5050565b6000546001600160a01b031681565b600283816004828154811061093757fe5b600091825260209091206002600390920201015463ffffffff16101561095c57600080fd5b60008581526005602052604090205485906001600160a01b0316331461098157600080fd5b84846004888154811061099057fe5b600091825260209091206109aa9360039092020191611045565b50505050505050565b6000546001600160a01b031633146109ca57600080fd5b600855565b60008281526005602052604090205482906001600160a01b031633146109f457600080fd5b600060048481548110610a0357fe5b90600052602060002090600302019050600060048481548110610a2257fe5b906000526020600020906003020190506000610a3e6064610faf565b9050600a548111610ae7576002808401805463ffffffff600161ffff600160401b8085048216830182160261ffff60401b1990941693909317828116820190921663ffffffff19909216919091179092559184018054600160501b8082048516840190941690930261ffff60501b19909316929092179091558201546040805180820190915260068152657a6f6d62696560d01b6020820152610ae2918891610bd1565b610b44565b60028084018054600161ffff600160501b8084048216830182160261ffff60501b19909316929092179092559184018054600160401b808204851690930190931690910261ffff60401b19909216919091179055610b4483611003565b505050505050565b6000546001600160a01b03163314610b6357600080fd5b6001600160a01b038116610b7657600080fd5b600080546040516001600160a01b03808516939216917f8be0079c531659141344cd1fd0a4f28419497f9722a3daafe3b4186f6b6457e091a3600080546001600160a01b0319166001600160a01b0392909216919091179055565b60008381526005602052604090205483906001600160a01b03163314610bf657600080fd5b600060048581548110610c0557fe5b90600052602060002090600302019050610c1e8161102d565b610c2757600080fd5b6002548481610c3257fe5b069350600060028583600101540181610c4757fe5b0490506040516020018080646b6974747960d81b815250600501905060405160208183030381529060405280519060200120846040516020018082805190602001908083835b60208310610cac5780518252601f199092019160209182019101610c8d565b6001836020036101000a038019825116818451168082178552505050505050905001915050604051602081830303815290604052805190602001201415610cf7576064810690036063015b610d1f604051806040016040528060068152602001654e6f4e616d6560d01b81525082610db1565b610b4482611003565b600080826040516020018082805190602001908083835b60208310610d5e5780518252601f199092019160209182019101610d3f565b6001836020036101000a0380198251168184511680821785525050505050509050019150506040516020818303038152906040528051906020012060001c90506002548181610da957fe5b069392505050565b610db96110c3565b506040805160c0810182528381526020808201849052600192820183905260038054420163ffffffff16606084015260006080840181905260a084018190526004805495860181559052825180519394859492027f8a35acfbc15ff81a39ae7d344fd709f28e8600b4aa8c65c6b64bfe7fe36bd19b0192610e3f928492909101906110f8565b50602082810151600183810191909155604080850151600290940180546060808801516080808a015160a0909a015163ffffffff1990941663ffffffff998a161767ffffffff000000001916600160201b99909216989098021761ffff60401b1916600160401b61ffff998a16021761ffff60501b1916600160501b9890921697909702179055600454600019016000818152600585528281208054336001600160a01b0319909116811790915581526006855282812080549094019093558151818152918201889052818401868152895196830196909652885190957f88f026aacbbecc90c18411df4b1185fd8d9be2470f1962f192bf84a27d0704b79587958b958b95949285019291870191908190849084905b83811015610f6d578181015183820152602001610f55565b50505050905090810190601f168015610f9a5780820380516001836020036101000a031916815260200191505b5094505050505060405180910390a150505050565b600980546001019081905560408051426020808301919091523360601b828401526054808301949094528251808303909401845260749091019091528151910120600090829081610ffc57fe5b0692915050565b60035442018160020160046101000a81548163ffffffff021916908363ffffffff16021790555050565b6002015442600160201b90910463ffffffff16111590565b828054600181600116156101000203166002900490600052602060002090601f016020900481019282601f106110865782800160ff198235161785556110b3565b828001600101855582156110b3579182015b828111156110b3578235825591602001919060010190611098565b506110bf929150611166565b5090565b6040805160c081018252606080825260006020830181905292820183905281018290526080810182905260a081019190915290565b828054600181600116156101000203166002900490600052602060002090601f016020900481019282601f1061113957805160ff19168380011785556110b3565b828001600101855582156110b3579182015b828111156110b357825182559160200191906001019061114b565b61118091905b808211156110bf576000815560010161116c565b9056fea26469706673582212203a013958c9a5778b3aee29e4048a0ccf19ff00761ac0637678f6199639ea44b664736f6c63430006000033",
  "source": "pragma solidity >=0.6 <0.9.0;\n\nimport \"./ZombieHelper.sol\";\n\ncontract ZombieAttack is ZombieHelper {\n  uint randNonce = 0;\n  uint attackVictoryProbability = 70;\n\n  function randMod(uint _modulus) internal returns(uint) {\n    randNonce++;\n    return uint(keccak256(abi.encodePacked( block.timestamp, msg.sender, randNonce))) % _modulus;\n  }\n\n  function attack(uint _zombieId, uint _targetId) external onlyOwnerOf(_zombieId) {\n    Zombie storage myZombie = zombies[_zombieId];\n    Zombie storage enemyZombie = zombies[_targetId];\n    uint rand = randMod(100);\n    if (rand <= attackVictoryProbability) {\n      myZombie.winCount++;\n      myZombie.level++;\n      enemyZombie.lossCount++;\n      feedAndMultiply(_zombieId, enemyZombie.dna, \"zombie\");\n    } else {\n      myZombie.lossCount++;\n      enemyZombie.winCount++;\n      _triggerCooldown(myZombie);\n    }\n  }\n}\n",
  "sourcePath": "/Users/ricardoteixeira/Documents/code/solidity/react-zombies/src/solidity/contracts/ZombieAttack.sol",
  "compiler": {
    "name": "solc",
    "version": "0.6.0+commit.26b70077.Emscripten.clang"
  },
  "schemaVersion": "3.3.4",
  "updatedAt": "2021-03-22T23:26:30.141Z",
  "devdoc": {
    "methods": {
      "transferOwnership(address)": {
        "details": "Allows the current owner to transfer control of the contract to a newOwner.",
        "params": {
          "newOwner": "The address to transfer ownership to."
        }
      }
    }
  },
  "userdoc": {
    "methods": {}
  }
}