{
  "contractName": "ZombieHelper",
  "abi": [
    {
      "anonymous": false,
      "inputs": [
        {
          "indexed": false,
          "internalType": "uint256",
          "name": "zombieId",
          "type": "uint256"
        },
        {
          "indexed": false,
          "internalType": "string",
          "name": "name",
          "type": "string"
        },
        {
          "indexed": false,
          "internalType": "uint256",
          "name": "dna",
          "type": "uint256"
        }
      ],
      "name": "NewZombie",
      "type": "event"
    },
    {
      "anonymous": false,
      "inputs": [
        {
          "indexed": true,
          "internalType": "address",
          "name": "previousOwner",
          "type": "address"
        },
        {
          "indexed": true,
          "internalType": "address",
          "name": "newOwner",
          "type": "address"
        }
      ],
      "name": "OwnershipTransferred",
      "type": "event"
    },
    {
      "inputs": [
        {
          "internalType": "string",
          "name": "_name",
          "type": "string"
        }
      ],
      "name": "createRandomZombie",
      "outputs": [],
      "stateMutability": "nonpayable",
      "type": "function"
    },
    {
      "inputs": [
        {
          "internalType": "uint256",
          "name": "_zombieId",
          "type": "uint256"
        },
        {
          "internalType": "uint256",
          "name": "_kittyId",
          "type": "uint256"
        }
      ],
      "name": "feedOnKitty",
      "outputs": [],
      "stateMutability": "nonpayable",
      "type": "function"
    },
    {
      "inputs": [],
      "name": "owner",
      "outputs": [
        {
          "internalType": "address payable",
          "name": "",
          "type": "address"
        }
      ],
      "stateMutability": "view",
      "type": "function"
    },
    {
      "inputs": [
        {
          "internalType": "address",
          "name": "_address",
          "type": "address"
        }
      ],
      "name": "setKittyContractAddress",
      "outputs": [],
      "stateMutability": "nonpayable",
      "type": "function"
    },
    {
      "inputs": [
        {
          "internalType": "address payable",
          "name": "newOwner",
          "type": "address"
        }
      ],
      "name": "transferOwnership",
      "outputs": [],
      "stateMutability": "nonpayable",
      "type": "function"
    },
    {
      "inputs": [
        {
          "internalType": "uint256",
          "name": "",
          "type": "uint256"
        }
      ],
      "name": "zombieToOwner",
      "outputs": [
        {
          "internalType": "address",
          "name": "",
          "type": "address"
        }
      ],
      "stateMutability": "view",
      "type": "function"
    },
    {
      "inputs": [
        {
          "internalType": "uint256",
          "name": "",
          "type": "uint256"
        }
      ],
      "name": "zombies",
      "outputs": [
        {
          "internalType": "string",
          "name": "name",
          "type": "string"
        },
        {
          "internalType": "uint256",
          "name": "dna",
          "type": "uint256"
        },
        {
          "internalType": "uint32",
          "name": "level",
          "type": "uint32"
        },
        {
          "internalType": "uint32",
          "name": "readyTime",
          "type": "uint32"
        },
        {
          "internalType": "uint16",
          "name": "winCount",
          "type": "uint16"
        },
        {
          "internalType": "uint16",
          "name": "lossCount",
          "type": "uint16"
        }
      ],
      "stateMutability": "view",
      "type": "function"
    },
    {
      "inputs": [],
      "name": "withdraw",
      "outputs": [],
      "stateMutability": "nonpayable",
      "type": "function"
    },
    {
      "inputs": [
        {
          "internalType": "uint256",
          "name": "_fee",
          "type": "uint256"
        }
      ],
      "name": "setLevelUpFee",
      "outputs": [],
      "stateMutability": "nonpayable",
      "type": "function"
    },
    {
      "inputs": [
        {
          "internalType": "uint256",
          "name": "_zombieId",
          "type": "uint256"
        }
      ],
      "name": "levelUp",
      "outputs": [],
      "stateMutability": "payable",
      "type": "function"
    },
    {
      "inputs": [
        {
          "internalType": "uint256",
          "name": "_zombieId",
          "type": "uint256"
        },
        {
          "internalType": "string",
          "name": "_newName",
          "type": "string"
        }
      ],
      "name": "changeName",
      "outputs": [],
      "stateMutability": "nonpayable",
      "type": "function"
    },
    {
      "inputs": [
        {
          "internalType": "uint256",
          "name": "_zombieId",
          "type": "uint256"
        },
        {
          "internalType": "uint256",
          "name": "_newDna",
          "type": "uint256"
        }
      ],
      "name": "changeDna",
      "outputs": [],
      "stateMutability": "nonpayable",
      "type": "function"
    },
    {
      "inputs": [
        {
          "internalType": "address",
          "name": "_owner",
          "type": "address"
        }
      ],
      "name": "getZombiesByOwner",
      "outputs": [
        {
          "internalType": "uint256[]",
          "name": "",
          "type": "uint256[]"
        }
      ],
      "stateMutability": "view",
      "type": "function"
    }
  ],
  "bytecode": "0x608060408190526010600155662386f26fc100006002556201518060035566038d7ea4c68000600855600080546001600160a01b03191633178082556001600160a01b0316917f8be0079c531659141344cd1fd0a4f28419497f9722a3daafe3b4186f6b6457e0908290a3610faa806100796000396000f3fe6080604052600436106100c25760003560e01c80635f4623f11161007f5780638da5cb5b116100595780638da5cb5b146103de578063c39cbef1146103f3578063ccf670f814610475578063f2fde38b1461049f576100c2565b80635f4623f1146102ca5780635faf2880146102fd5780637bff0a011461032d576100c2565b80630ce90ec2146100c757806317a7f4cc146100e65780632052465e146101165780633ccfd60b146101ec5780634412e10414610201578063528b7b8f14610284575b600080fd5b6100e4600480360360208110156100dd57600080fd5b50356104d2565b005b3480156100f257600080fd5b506100e46004803603604081101561010957600080fd5b508035906020013561051d565b34801561012257600080fd5b506101406004803603602081101561013957600080fd5b50356105cc565b60408051602080820188905263ffffffff80881693830193909352918516606082015261ffff8085166080830152831660a082015260c080825288519082015287519091829160e08301918a019080838360005b838110156101ac578181015183820152602001610194565b50505050905090810190601f1680156101d95780820380516001836020036101000a031916815260200191505b5097505050505050505060405180910390f35b3480156101f857600080fd5b506100e46106af565b34801561020d57600080fd5b506102346004803603602081101561022457600080fd5b50356001600160a01b0316610703565b60408051602080825283518183015283519192839290830191858101910280838360005b83811015610270578181015183820152602001610258565b505050509050019250505060405180910390f35b34801561029057600080fd5b506102ae600480360360208110156102a757600080fd5b50356107b8565b604080516001600160a01b039092168252519081900360200190f35b3480156102d657600080fd5b506100e4600480360360208110156102ed57600080fd5b50356001600160a01b03166107d3565b34801561030957600080fd5b506100e46004803603604081101561032057600080fd5b508035906020013561080c565b34801561033957600080fd5b506100e46004803603602081101561035057600080fd5b810190602081018135600160201b81111561036a57600080fd5b82018360208201111561037c57600080fd5b803590602001918460018302840111600160201b8311171561039d57600080fd5b91908080601f016020809104026020016040519081016040528093929190818152602001838380828437600092019190915250929550610891945050505050565b3480156103ea57600080fd5b506102ae6108cc565b3480156103ff57600080fd5b506100e46004803603604081101561041657600080fd5b81359190810190604081016020820135600160201b81111561043757600080fd5b82018360208201111561044957600080fd5b803590602001918460018302840111600160201b8311171561046a57600080fd5b5090925090506108db565b34801561048157600080fd5b506100e46004803603602081101561049857600080fd5b5035610968565b3480156104ab57600080fd5b506100e4600480360360208110156104c257600080fd5b50356001600160a01b0316610984565b60085434146104e057600080fd5b600481815481106104ed57fe5b60009182526020909120600260039092020101805463ffffffff8082166001011663ffffffff1990911617905550565b6007546040805163e98b7f4d60e01b81526004810184905290516000926001600160a01b03169163e98b7f4d91602480830192610140929190829003018186803b15801561056a57600080fd5b505afa15801561057e573d6000803e3d6000fd5b505050506040513d61014081101561059557600080fd5b5061012001516040805180820190915260058152646b6974747960d81b60208201529091506105c79084908390610a09565b505050565b600481815481106105d957fe5b60009182526020918290206003919091020180546040805160026001841615610100026000190190931692909204601f8101859004850283018501909152808252919350918391908301828280156106725780601f1061064757610100808354040283529160200191610672565b820191906000526020600020905b81548152906001019060200180831161065557829003601f168201915b505050600184015460029094015492939263ffffffff8082169350600160201b820416915061ffff600160401b8204811691600160501b90041686565b6000546001600160a01b031633146106c657600080fd5b600080546040516001600160a01b03909116914780156108fc02929091818181858888f19350505050158015610700573d6000803e3d6000fd5b50565b60608060066000846001600160a01b03166001600160a01b0316815260200190815260200160002054604051908082528060200260200182016040528015610755578160200160208202803883390190505b5090506000805b6004548110156107af576000818152600560205260409020546001600160a01b03868116911614156107a7578083838151811061079557fe5b60209081029190910101526001909101905b60010161075c565b50909392505050565b6005602052600090815260409020546001600160a01b031681565b6000546001600160a01b031633146107ea57600080fd5b600780546001600160a01b0319166001600160a01b0392909216919091179055565b601482816004828154811061081d57fe5b600091825260209091206002600390920201015463ffffffff16101561084257600080fd5b60008481526005602052604090205484906001600160a01b0316331461086757600080fd5b836004868154811061087557fe5b9060005260206000209060030201600101819055505050505050565b33600090815260066020526040902054156108ab57600080fd5b60006108b682610b68565b90506064810690036108c88282610bf1565b5050565b6000546001600160a01b031681565b60028381600482815481106108ec57fe5b600091825260209091206002600390920201015463ffffffff16101561091157600080fd5b60008581526005602052604090205485906001600160a01b0316331461093657600080fd5b84846004888154811061094557fe5b6000918252602090912061095f9360039092020191610e36565b50505050505050565b6000546001600160a01b0316331461097f57600080fd5b600855565b6000546001600160a01b0316331461099b57600080fd5b6001600160a01b0381166109ae57600080fd5b600080546040516001600160a01b03808516939216917f8be0079c531659141344cd1fd0a4f28419497f9722a3daafe3b4186f6b6457e091a3600080546001600160a01b0319166001600160a01b0392909216919091179055565b60008381526005602052604090205483906001600160a01b03163314610a2e57600080fd5b600060048581548110610a3d57fe5b90600052602060002090600302019050610a5681610df4565b610a5f57600080fd5b6002548481610a6a57fe5b069350600060028583600101540181610a7f57fe5b0490506040516020018080646b6974747960d81b815250600501905060405160208183030381529060405280519060200120846040516020018082805190602001908083835b60208310610ae45780518252601f199092019160209182019101610ac5565b6001836020036101000a038019825116818451168082178552505050505050905001915050604051602081830303815290604052805190602001201415610b2f576064810690036063015b610b57604051806040016040528060068152602001654e6f4e616d6560d01b81525082610bf1565b610b6082610e0c565b505050505050565b600080826040516020018082805190602001908083835b60208310610b9e5780518252601f199092019160209182019101610b7f565b6001836020036101000a0380198251168184511680821785525050505050509050019150506040516020818303038152906040528051906020012060001c90506002548181610be957fe5b069392505050565b610bf9610eb4565b506040805160c0810182528381526020808201849052600192820183905260038054420163ffffffff16606084015260006080840181905260a084018190526004805495860181559052825180519394859492027f8a35acfbc15ff81a39ae7d344fd709f28e8600b4aa8c65c6b64bfe7fe36bd19b0192610c7f92849290910190610ee9565b50602082810151600183810191909155604080850151600290940180546060808801516080808a015160a0909a015163ffffffff1990941663ffffffff998a161767ffffffff000000001916600160201b99909216989098021769ffff00000000000000001916600160401b61ffff998a16021761ffff60501b1916600160501b9890921697909702179055600454600019016000818152600585528281208054336001600160a01b0319909116811790915581526006855282812080549094019093558151818152918201889052818401868152895196830196909652885190957f88f026aacbbecc90c18411df4b1185fd8d9be2470f1962f192bf84a27d0704b79587958b958b95949285019291870191908190849084905b83811015610db2578181015183820152602001610d9a565b50505050905090810190601f168015610ddf5780820380516001836020036101000a031916815260200191505b5094505050505060405180910390a150505050565b6002015442600160201b90910463ffffffff16111590565b60035442018160020160046101000a81548163ffffffff021916908363ffffffff16021790555050565b828054600181600116156101000203166002900490600052602060002090601f016020900481019282601f10610e775782800160ff19823516178555610ea4565b82800160010185558215610ea4579182015b82811115610ea4578235825591602001919060010190610e89565b50610eb0929150610f57565b5090565b6040805160c081018252606080825260006020830181905292820183905281018290526080810182905260a081019190915290565b828054600181600116156101000203166002900490600052602060002090601f016020900481019282601f10610f2a57805160ff1916838001178555610ea4565b82800160010185558215610ea4579182015b82811115610ea4578251825591602001919060010190610f3c565b610f7191905b80821115610eb05760008155600101610f5d565b9056fea2646970667358221220ada7a9783656c19f12eafcb3a862a70889bae37780583d71a31fd7258387684264736f6c63430006000033",
  "source": "pragma solidity >=0.4.22 <0.9.0;\n\nimport \"./ZombieFeeding.sol\";\n\ncontract ZombieHelper is ZombieFeeding {\n\n  uint levelUpFee = 0.001 ether;\n\n  modifier aboveLevel(uint _level, uint _zombieId) {\n    require(zombies[_zombieId].level >= _level);\n    _;\n  }\n\n  function withdraw() external onlyOwner {\n    owner.transfer(address(this).balance);\n  }\n\n  function setLevelUpFee(uint _fee) external onlyOwner {\n    levelUpFee = _fee;\n  }\n\n  function levelUp(uint _zombieId) external payable {\n    require(msg.value == levelUpFee);\n    zombies[_zombieId].level++;\n  }\n\n  function changeName(uint _zombieId, string calldata _newName ) external aboveLevel(2, _zombieId) onlyOwnerOf(_zombieId) {\n    zombies[_zombieId].name = _newName;\n  }\n\n  function changeDna(uint _zombieId, uint _newDna) external aboveLevel(20, _zombieId) onlyOwnerOf(_zombieId) {\n    zombies[_zombieId].dna = _newDna;\n  }\n\n  function getZombiesByOwner(address _owner) external view returns(uint[] memory) {\n    uint[] memory result = new uint[](ownerZombieCount[_owner]);\n    uint counter = 0;\n    for (uint i = 0; i < zombies.length; i++) {\n      if (zombieToOwner[i] == _owner) {\n        result[counter] = i;\n        counter++;\n      }\n    }\n    return result;\n  }\n\n}\n",
  "sourcePath": "/Users/ricardoteixeira/Documents/code/solidity/react-zombies/src/solidity/contracts/ZombieHelper.sol",
  "compiler": {
    "name": "solc",
    "version": "0.6.0+commit.26b70077.Emscripten.clang"
  },
  "schemaVersion": "3.3.4",
  "updatedAt": "2021-03-22T23:26:30.153Z",
  "devdoc": {
    "methods": {
      "transferOwnership(address)": {
        "details": "Allows the current owner to transfer control of the contract to a newOwner.",
        "params": {
          "newOwner": "The address to transfer ownership to."
        }
      }
    }
  },
  "userdoc": {
    "methods": {}
  }
}