{
  "contractName": "ZombieAttack",
  "abi": [
    {
      "anonymous": false,
      "inputs": [
        {
          "indexed": false,
          "internalType": "uint256",
          "name": "zombieId",
          "type": "uint256"
        },
        {
          "indexed": false,
          "internalType": "string",
          "name": "name",
          "type": "string"
        },
        {
          "indexed": false,
          "internalType": "uint256",
          "name": "dna",
          "type": "uint256"
        }
      ],
      "name": "NewZombie",
      "type": "event"
    },
    {
      "anonymous": false,
      "inputs": [
        {
          "indexed": true,
          "internalType": "address",
          "name": "previousOwner",
          "type": "address"
        },
        {
          "indexed": true,
          "internalType": "address",
          "name": "newOwner",
          "type": "address"
        }
      ],
      "name": "OwnershipTransferred",
      "type": "event"
    },
    {
      "inputs": [
        {
          "internalType": "uint256",
          "name": "_zombieId",
          "type": "uint256"
        },
        {
          "internalType": "uint256",
          "name": "_newDna",
          "type": "uint256"
        }
      ],
      "name": "changeDna",
      "outputs": [],
      "stateMutability": "nonpayable",
      "type": "function"
    },
    {
      "inputs": [
        {
          "internalType": "uint256",
          "name": "_zombieId",
          "type": "uint256"
        },
        {
          "internalType": "string",
          "name": "_newName",
          "type": "string"
        }
      ],
      "name": "changeName",
      "outputs": [],
      "stateMutability": "nonpayable",
      "type": "function"
    },
    {
      "inputs": [
        {
          "internalType": "string",
          "name": "_name",
          "type": "string"
        }
      ],
      "name": "createRandomZombie",
      "outputs": [],
      "stateMutability": "nonpayable",
      "type": "function"
    },
    {
      "inputs": [
        {
          "internalType": "uint256",
          "name": "_zombieId",
          "type": "uint256"
        },
        {
          "internalType": "uint256",
          "name": "_kittyId",
          "type": "uint256"
        }
      ],
      "name": "feedOnKitty",
      "outputs": [],
      "stateMutability": "nonpayable",
      "type": "function"
    },
    {
      "inputs": [
        {
          "internalType": "address",
          "name": "_owner",
          "type": "address"
        }
      ],
      "name": "getZombiesByOwner",
      "outputs": [
        {
          "internalType": "uint256[]",
          "name": "",
          "type": "uint256[]"
        }
      ],
      "stateMutability": "view",
      "type": "function",
      "constant": true
    },
    {
      "inputs": [
        {
          "internalType": "uint256",
          "name": "_zombieId",
          "type": "uint256"
        }
      ],
      "name": "levelUp",
      "outputs": [],
      "stateMutability": "payable",
      "type": "function",
      "payable": true
    },
    {
      "inputs": [],
      "name": "owner",
      "outputs": [
        {
          "internalType": "address payable",
          "name": "",
          "type": "address"
        }
      ],
      "stateMutability": "view",
      "type": "function",
      "constant": true
    },
    {
      "inputs": [
        {
          "internalType": "address",
          "name": "",
          "type": "address"
        }
      ],
      "name": "ownerZombieCount",
      "outputs": [
        {
          "internalType": "uint256",
          "name": "",
          "type": "uint256"
        }
      ],
      "stateMutability": "view",
      "type": "function",
      "constant": true
    },
    {
      "inputs": [
        {
          "internalType": "address",
          "name": "_address",
          "type": "address"
        }
      ],
      "name": "setKittyContractAddress",
      "outputs": [],
      "stateMutability": "nonpayable",
      "type": "function"
    },
    {
      "inputs": [
        {
          "internalType": "uint256",
          "name": "_fee",
          "type": "uint256"
        }
      ],
      "name": "setLevelUpFee",
      "outputs": [],
      "stateMutability": "nonpayable",
      "type": "function"
    },
    {
      "inputs": [
        {
          "internalType": "address payable",
          "name": "newOwner",
          "type": "address"
        }
      ],
      "name": "transferOwnership",
      "outputs": [],
      "stateMutability": "nonpayable",
      "type": "function"
    },
    {
      "inputs": [],
      "name": "withdraw",
      "outputs": [],
      "stateMutability": "nonpayable",
      "type": "function"
    },
    {
      "inputs": [
        {
          "internalType": "uint256",
          "name": "",
          "type": "uint256"
        }
      ],
      "name": "zombieToOwner",
      "outputs": [
        {
          "internalType": "address",
          "name": "",
          "type": "address"
        }
      ],
      "stateMutability": "view",
      "type": "function",
      "constant": true
    },
    {
      "inputs": [
        {
          "internalType": "uint256",
          "name": "",
          "type": "uint256"
        }
      ],
      "name": "zombies",
      "outputs": [
        {
          "internalType": "string",
          "name": "name",
          "type": "string"
        },
        {
          "internalType": "uint256",
          "name": "dna",
          "type": "uint256"
        },
        {
          "internalType": "uint32",
          "name": "level",
          "type": "uint32"
        },
        {
          "internalType": "uint32",
          "name": "readyTime",
          "type": "uint32"
        },
        {
          "internalType": "uint16",
          "name": "winCount",
          "type": "uint16"
        },
        {
          "internalType": "uint16",
          "name": "lossCount",
          "type": "uint16"
        }
      ],
      "stateMutability": "view",
      "type": "function",
      "constant": true
    },
    {
      "inputs": [
        {
          "internalType": "uint256",
          "name": "_zombieId",
          "type": "uint256"
        },
        {
          "internalType": "uint256",
          "name": "_targetId",
          "type": "uint256"
        }
      ],
      "name": "attack",
      "outputs": [],
      "stateMutability": "nonpayable",
      "type": "function"
    }
  ],
  "bytecode": "0x608060408190526010600155662386f26fc100006002556201518060035566038d7ea4c68000600855600060098190556046600a5580546001600160a01b03191633178082556001600160a01b0316917f8be0079c531659141344cd1fd0a4f28419497f9722a3daafe3b4186f6b6457e0908290a361121b806100836000396000f3fe6080604052600436106100e85760003560e01c80635f4623f11161008a578063c39cbef111610059578063c39cbef11461045e578063ccf670f8146104e0578063e1fa76381461050a578063f2fde38b1461053a576100e8565b80635f4623f1146103355780635faf2880146103685780637bff0a01146103985780638da5cb5b14610449576100e8565b80632052465e116100c65780632052465e146101815780633ccfd60b146102575780634412e1041461026c578063528b7b8f146102ef576100e8565b806301afd7e1146100ed5780630ce90ec21461013257806317a7f4cc14610151575b600080fd5b3480156100f957600080fd5b506101206004803603602081101561011057600080fd5b50356001600160a01b031661056d565b60408051918252519081900360200190f35b61014f6004803603602081101561014857600080fd5b503561057f565b005b34801561015d57600080fd5b5061014f6004803603604081101561017457600080fd5b50803590602001356105ca565b34801561018d57600080fd5b506101ab600480360360208110156101a457600080fd5b5035610679565b60408051602080820188905263ffffffff80881693830193909352918516606082015261ffff8085166080830152831660a082015260c080825288519082015287519091829160e08301918a019080838360005b838110156102175781810151838201526020016101ff565b50505050905090810190601f1680156102445780820380516001836020036101000a031916815260200191505b5097505050505050505060405180910390f35b34801561026357600080fd5b5061014f61075c565b34801561027857600080fd5b5061029f6004803603602081101561028f57600080fd5b50356001600160a01b03166107b0565b60408051602080825283518183015283519192839290830191858101910280838360005b838110156102db5781810151838201526020016102c3565b505050509050019250505060405180910390f35b3480156102fb57600080fd5b506103196004803603602081101561031257600080fd5b5035610865565b604080516001600160a01b039092168252519081900360200190f35b34801561034157600080fd5b5061014f6004803603602081101561035857600080fd5b50356001600160a01b0316610880565b34801561037457600080fd5b5061014f6004803603604081101561038b57600080fd5b50803590602001356108b9565b3480156103a457600080fd5b5061014f600480360360208110156103bb57600080fd5b810190602081018135600160201b8111156103d557600080fd5b8201836020820111156103e757600080fd5b803590602001918460018302840111600160201b8311171561040857600080fd5b91908080601f01602080910402602001604051908101604052809392919081815260200183838082843760009201919091525092955061093e945050505050565b34801561045557600080fd5b50610319610979565b34801561046a57600080fd5b5061014f6004803603604081101561048157600080fd5b81359190810190604081016020820135600160201b8111156104a257600080fd5b8201836020820111156104b457600080fd5b803590602001918460018302840111600160201b831117156104d557600080fd5b509092509050610988565b3480156104ec57600080fd5b5061014f6004803603602081101561050357600080fd5b5035610a15565b34801561051657600080fd5b5061014f6004803603604081101561052d57600080fd5b5080359060200135610a31565b34801561054657600080fd5b5061014f6004803603602081101561055d57600080fd5b50356001600160a01b0316610bae565b60066020526000908152604090205481565b600854341461058d57600080fd5b6004818154811061059a57fe5b60009182526020909120600260039092020101805463ffffffff8082166001011663ffffffff1990911617905550565b6007546040805163e98b7f4d60e01b81526004810184905290516000926001600160a01b03169163e98b7f4d91602480830192610140929190829003018186803b15801561061757600080fd5b505afa15801561062b573d6000803e3d6000fd5b505050506040513d61014081101561064257600080fd5b5061012001516040805180820190915260058152646b6974747960d81b60208201529091506106749084908390610c33565b505050565b6004818154811061068657fe5b60009182526020918290206003919091020180546040805160026001841615610100026000190190931692909204601f81018590048502830185019091528082529193509183919083018282801561071f5780601f106106f45761010080835404028352916020019161071f565b820191906000526020600020905b81548152906001019060200180831161070257829003601f168201915b505050600184015460029094015492939263ffffffff8082169350600160201b820416915061ffff600160401b8204811691600160501b90041686565b6000546001600160a01b0316331461077357600080fd5b600080546040516001600160a01b03909116914780156108fc02929091818181858888f193505050501580156107ad573d6000803e3d6000fd5b50565b60608060066000846001600160a01b03166001600160a01b0316815260200190815260200160002054604051908082528060200260200182016040528015610802578160200160208202803883390190505b5090506000805b60045481101561085c576000818152600560205260409020546001600160a01b0386811691161415610854578083838151811061084257fe5b60209081029190910101526001909101905b600101610809565b50909392505050565b6005602052600090815260409020546001600160a01b031681565b6000546001600160a01b0316331461089757600080fd5b600780546001600160a01b0319166001600160a01b0392909216919091179055565b60148281600482815481106108ca57fe5b600091825260209091206002600390920201015463ffffffff1610156108ef57600080fd5b60008481526005602052604090205484906001600160a01b0316331461091457600080fd5b836004868154811061092257fe5b9060005260206000209060030201600101819055505050505050565b336000908152600660205260409020541561095857600080fd5b600061096382610d8a565b90506064810690036109758282610e13565b5050565b6000546001600160a01b031681565b600283816004828154811061099957fe5b600091825260209091206002600390920201015463ffffffff1610156109be57600080fd5b60008581526005602052604090205485906001600160a01b031633146109e357600080fd5b8484600488815481106109f257fe5b60009182526020909120610a0c93600390920201916110a7565b50505050505050565b6000546001600160a01b03163314610a2c57600080fd5b600855565b60008281526005602052604090205482906001600160a01b03163314610a5657600080fd5b600060048481548110610a6557fe5b90600052602060002090600302019050600060048481548110610a8457fe5b906000526020600020906003020190506000610aa06064611011565b9050600a548111610b49576002808401805463ffffffff600161ffff600160401b8085048216830182160261ffff60401b1990941693909317828116820190921663ffffffff19909216919091179092559184018054600160501b8082048516840190941690930261ffff60501b19909316929092179091558201546040805180820190915260068152657a6f6d62696560d01b6020820152610b44918891610c33565b610ba6565b60028084018054600161ffff600160501b8084048216830182160261ffff60501b19909316929092179092559184018054600160401b808204851690930190931690910261ffff60401b19909216919091179055610ba683611065565b505050505050565b6000546001600160a01b03163314610bc557600080fd5b6001600160a01b038116610bd857600080fd5b600080546040516001600160a01b03808516939216917f8be0079c531659141344cd1fd0a4f28419497f9722a3daafe3b4186f6b6457e091a3600080546001600160a01b0319166001600160a01b0392909216919091179055565b60008381526005602052604090205483906001600160a01b03163314610c5857600080fd5b600060048581548110610c6757fe5b90600052602060002090600302019050610c808161108f565b610c8957600080fd5b6002548481610c9457fe5b069350600060028583600101540181610ca957fe5b0490506040516020018080646b6974747960d81b815250600501905060405160208183030381529060405280519060200120846040516020018082805190602001908083835b60208310610d0e5780518252601f199092019160209182019101610cef565b6001836020036101000a038019825116818451168082178552505050505050905001915050604051602081830303815290604052805190602001201415610d59576064810690036063015b610d81604051806040016040528060068152602001654e6f4e616d6560d01b81525082610e13565b610ba682611065565b600080826040516020018082805190602001908083835b60208310610dc05780518252601f199092019160209182019101610da1565b6001836020036101000a0380198251168184511680821785525050505050509050019150506040516020818303038152906040528051906020012060001c90506002548181610e0b57fe5b069392505050565b610e1b611125565b506040805160c0810182528381526020808201849052600192820183905260038054420163ffffffff16606084015260006080840181905260a084018190526004805495860181559052825180519394859492027f8a35acfbc15ff81a39ae7d344fd709f28e8600b4aa8c65c6b64bfe7fe36bd19b0192610ea19284929091019061115a565b50602082810151600183810191909155604080850151600290940180546060808801516080808a015160a0909a015163ffffffff1990941663ffffffff998a161767ffffffff000000001916600160201b99909216989098021761ffff60401b1916600160401b61ffff998a16021761ffff60501b1916600160501b9890921697909702179055600454600019016000818152600585528281208054336001600160a01b0319909116811790915581526006855282812080549094019093558151818152918201889052818401868152895196830196909652885190957f88f026aacbbecc90c18411df4b1185fd8d9be2470f1962f192bf84a27d0704b79587958b958b95949285019291870191908190849084905b83811015610fcf578181015183820152602001610fb7565b50505050905090810190601f168015610ffc5780820380516001836020036101000a031916815260200191505b5094505050505060405180910390a150505050565b600980546001019081905560408051426020808301919091523360601b82840152605480830194909452825180830390940184526074909101909152815191012060009082908161105e57fe5b0692915050565b60035442018160020160046101000a81548163ffffffff021916908363ffffffff16021790555050565b6002015442600160201b90910463ffffffff16111590565b828054600181600116156101000203166002900490600052602060002090601f016020900481019282601f106110e85782800160ff19823516178555611115565b82800160010185558215611115579182015b828111156111155782358255916020019190600101906110fa565b506111219291506111c8565b5090565b6040805160c081018252606080825260006020830181905292820183905281018290526080810182905260a081019190915290565b828054600181600116156101000203166002900490600052602060002090601f016020900481019282601f1061119b57805160ff1916838001178555611115565b82800160010185558215611115579182015b828111156111155782518255916020019190600101906111ad565b6111e291905b8082111561112157600081556001016111ce565b9056fea2646970667358221220091cfd0a1fbf89ef668829c23e57f06024c407426e639485decb63c92a9caf5764736f6c63430006000033",
  "source": "pragma solidity >=0.6 <0.9.0;\n\nimport \"./ZombieHelper.sol\";\n\ncontract ZombieAttack is ZombieHelper {\n  uint randNonce = 0;\n  uint attackVictoryProbability = 70;\n\n  function randMod(uint _modulus) internal returns(uint) {\n    randNonce++;\n    return uint(keccak256(abi.encodePacked( block.timestamp, msg.sender, randNonce))) % _modulus;\n  }\n\n  function attack(uint _zombieId, uint _targetId) external onlyOwnerOf(_zombieId) {\n    Zombie storage myZombie = zombies[_zombieId];\n    Zombie storage enemyZombie = zombies[_targetId];\n    uint rand = randMod(100);\n    if (rand <= attackVictoryProbability) {\n      myZombie.winCount++;\n      myZombie.level++;\n      enemyZombie.lossCount++;\n      feedAndMultiply(_zombieId, enemyZombie.dna, \"zombie\");\n    } else {\n      myZombie.lossCount++;\n      enemyZombie.winCount++;\n      _triggerCooldown(myZombie);\n    }\n  }\n}\n",
  "sourcePath": "/Users/ricardoteixeira/Documents/code/solidity/react-zombies/src/solidity/contracts/ZombieAttack.sol",
  "compiler": {
    "name": "solc",
    "version": "0.6.0+commit.26b70077.Emscripten.clang"
  },
  "schemaVersion": "3.3.4",
  "updatedAt": "2021-03-23T01:52:26.098Z",
  "networkType": "ethereum",
  "devdoc": {
    "methods": {
      "transferOwnership(address)": {
        "details": "Allows the current owner to transfer control of the contract to a newOwner.",
        "params": {
          "newOwner": "The address to transfer ownership to."
        }
      }
    }
  },
  "userdoc": {
    "methods": {}
  }
}