{
  "contractName": "ZombieFactory",
  "abi": [
    {
      "anonymous": false,
      "inputs": [
        {
          "indexed": false,
          "internalType": "uint256",
          "name": "zombieId",
          "type": "uint256"
        },
        {
          "indexed": false,
          "internalType": "string",
          "name": "name",
          "type": "string"
        },
        {
          "indexed": false,
          "internalType": "uint256",
          "name": "dna",
          "type": "uint256"
        }
      ],
      "name": "NewZombie",
      "type": "event"
    },
    {
      "anonymous": false,
      "inputs": [
        {
          "indexed": true,
          "internalType": "address",
          "name": "previousOwner",
          "type": "address"
        },
        {
          "indexed": true,
          "internalType": "address",
          "name": "newOwner",
          "type": "address"
        }
      ],
      "name": "OwnershipTransferred",
      "type": "event"
    },
    {
      "inputs": [],
      "name": "owner",
      "outputs": [
        {
          "internalType": "address payable",
          "name": "",
          "type": "address"
        }
      ],
      "stateMutability": "view",
      "type": "function",
      "constant": true
    },
    {
      "inputs": [
        {
          "internalType": "address",
          "name": "",
          "type": "address"
        }
      ],
      "name": "ownerZombieCount",
      "outputs": [
        {
          "internalType": "uint256",
          "name": "",
          "type": "uint256"
        }
      ],
      "stateMutability": "view",
      "type": "function",
      "constant": true
    },
    {
      "inputs": [
        {
          "internalType": "address payable",
          "name": "newOwner",
          "type": "address"
        }
      ],
      "name": "transferOwnership",
      "outputs": [],
      "stateMutability": "nonpayable",
      "type": "function"
    },
    {
      "inputs": [
        {
          "internalType": "uint256",
          "name": "",
          "type": "uint256"
        }
      ],
      "name": "zombieToOwner",
      "outputs": [
        {
          "internalType": "address",
          "name": "",
          "type": "address"
        }
      ],
      "stateMutability": "view",
      "type": "function",
      "constant": true
    },
    {
      "inputs": [
        {
          "internalType": "uint256",
          "name": "",
          "type": "uint256"
        }
      ],
      "name": "zombies",
      "outputs": [
        {
          "internalType": "string",
          "name": "name",
          "type": "string"
        },
        {
          "internalType": "uint256",
          "name": "dna",
          "type": "uint256"
        },
        {
          "internalType": "uint32",
          "name": "level",
          "type": "uint32"
        },
        {
          "internalType": "uint32",
          "name": "readyTime",
          "type": "uint32"
        },
        {
          "internalType": "uint16",
          "name": "winCount",
          "type": "uint16"
        },
        {
          "internalType": "uint16",
          "name": "lossCount",
          "type": "uint16"
        }
      ],
      "stateMutability": "view",
      "type": "function",
      "constant": true
    },
    {
      "inputs": [
        {
          "internalType": "string",
          "name": "_name",
          "type": "string"
        }
      ],
      "name": "createRandomZombie",
      "outputs": [],
      "stateMutability": "nonpayable",
      "type": "function"
    }
  ],
  "bytecode": "0x608060408190526010600155662386f26fc1000060025562015180600355600080546001600160a01b03191633178082556001600160a01b0316917f8be0079c531659141344cd1fd0a4f28419497f9722a3daafe3b4186f6b6457e0908290a36107ea8061006e6000396000f3fe608060405234801561001057600080fd5b50600436106100625760003560e01c806301afd7e1146100675780632052465e1461009f578063528b7b8f146101685780637bff0a01146101a15780638da5cb5b14610249578063f2fde38b14610251575b600080fd5b61008d6004803603602081101561007d57600080fd5b50356001600160a01b0316610277565b60408051918252519081900360200190f35b6100bc600480360360208110156100b557600080fd5b5035610289565b60408051602080820188905263ffffffff80881693830193909352918516606082015261ffff8085166080830152831660a082015260c080825288519082015287519091829160e08301918a019080838360005b83811015610128578181015183820152602001610110565b50505050905090810190601f1680156101555780820380516001836020036101000a031916815260200191505b5097505050505050505060405180910390f35b6101856004803603602081101561017e57600080fd5b503561036d565b604080516001600160a01b039092168252519081900360200190f35b610247600480360360208110156101b757600080fd5b8101906020810181356401000000008111156101d257600080fd5b8201836020820111156101e457600080fd5b8035906020019184600183028401116401000000008311171561020657600080fd5b91908080601f016020809104026020016040519081016040528093929190818152602001838380828437600092019190915250929550610388945050505050565b005b6101856103c3565b6102476004803603602081101561026757600080fd5b50356001600160a01b03166103d2565b60066020526000908152604090205481565b6004818154811061029657fe5b60009182526020918290206003919091020180546040805160026001841615610100026000190190931692909204601f81018590048502830185019091528082529193509183919083018282801561032f5780601f106103045761010080835404028352916020019161032f565b820191906000526020600020905b81548152906001019060200180831161031257829003601f168201915b505050600184015460029094015492939263ffffffff8082169350640100000000820416915061ffff600160401b8204811691600160501b90041686565b6005602052600090815260409020546001600160a01b031681565b33600090815260066020526040902054156103a257600080fd5b60006103ad82610457565b90506064810690036103bf82826104e0565b5050565b6000546001600160a01b031681565b6000546001600160a01b031633146103e957600080fd5b6001600160a01b0381166103fc57600080fd5b600080546040516001600160a01b03808516939216917f8be0079c531659141344cd1fd0a4f28419497f9722a3daafe3b4186f6b6457e091a3600080546001600160a01b0319166001600160a01b0392909216919091179055565b600080826040516020018082805190602001908083835b6020831061048d5780518252601f19909201916020918201910161046e565b6001836020036101000a0380198251168184511680821785525050505050509050019150506040516020818303038152906040528051906020012060001c905060025481816104d857fe5b069392505050565b6104e86106e4565b506040805160c0810182528381526020808201849052600192820183905260038054420163ffffffff16606084015260006080840181905260a084018190526004805495860181559052825180519394859492027f8a35acfbc15ff81a39ae7d344fd709f28e8600b4aa8c65c6b64bfe7fe36bd19b019261056e92849290910190610719565b50602082810151600183810191909155604080850151600290940180546060808801516080808a015160a0909a015163ffffffff1990941663ffffffff998a161767ffffffff00000000191664010000000099909216989098021769ffff00000000000000001916600160401b61ffff998a16021761ffff60501b1916600160501b9890921697909702179055600454600019016000818152600585528281208054336001600160a01b0319909116811790915581526006855282812080549094019093558151818152918201889052818401868152895196830196909652885190957f88f026aacbbecc90c18411df4b1185fd8d9be2470f1962f192bf84a27d0704b79587958b958b95949285019291870191908190849084905b838110156106a257818101518382015260200161068a565b50505050905090810190601f1680156106cf5780820380516001836020036101000a031916815260200191505b5094505050505060405180910390a150505050565b6040805160c081018252606080825260006020830181905292820183905281018290526080810182905260a081019190915290565b828054600181600116156101000203166002900490600052602060002090601f016020900481019282601f1061075a57805160ff1916838001178555610787565b82800160010185558215610787579182015b8281111561078757825182559160200191906001019061076c565b50610793929150610797565b5090565b6107b191905b80821115610793576000815560010161079d565b9056fea26469706673582212202ed867ec19b9ee0f3353f7ed34984ff45eb0990f7d36811621d9758e6b947a0864736f6c63430006000033",
  "source": "pragma solidity >=0.6 <0.9.0;\n\nimport \"./Ownable.sol\";\nimport \"./SafeMath.sol\";\n\ncontract ZombieFactory is Ownable {\n\n  using SafeMath for uint256;\n\n  event NewZombie(uint zombieId, string name, uint dna);\n\n  uint dnaDigits = 16;\n  uint dnaModulus = 10 ** dnaDigits;\n  uint cooldownTime = 1 days;\n\n  struct Zombie {\n    string name;\n    uint dna;\n    uint32 level;\n    uint32 readyTime;\n    uint16 winCount;\n    uint16 lossCount;\n  }\n\n  Zombie[] public zombies;\n\n  mapping (uint => address) public zombieToOwner;\n  mapping (address => uint) public ownerZombieCount;\n\n  function _createZombie(string memory _name, uint _dna) internal {\n\n    Zombie memory _zombie = Zombie(_name, _dna, 1, uint32(block.timestamp + cooldownTime),0,0);\n    zombies.push(_zombie);\n    uint id = zombies.length -1;\n    zombieToOwner[id] = msg.sender;\n    ownerZombieCount[msg.sender]++;\n    emit NewZombie(id, _name, _dna);\n  }\n\n  function _generateRandomDna(string memory _str) private view returns (uint) {\n    uint rand = uint(keccak256(abi.encodePacked(_str)));\n    return rand % dnaModulus;\n  }\n\n  function createRandomZombie(string memory _name) public {\n    require(ownerZombieCount[msg.sender] == 0);\n    uint randDna = _generateRandomDna(_name);\n    randDna = randDna - randDna % 100;\n    _createZombie(_name, randDna);\n  }\n\n}\n",
  "sourcePath": "/Users/ricardoteixeira/Documents/code/solidity/react-zombies/src/solidity/contracts/ZombieFactory.sol",
  "compiler": {
    "name": "solc",
    "version": "0.6.0+commit.26b70077.Emscripten.clang"
  },
  "schemaVersion": "3.3.4",
  "updatedAt": "2021-03-23T01:52:26.087Z",
  "networkType": "ethereum",
  "devdoc": {
    "methods": {
      "transferOwnership(address)": {
        "details": "Allows the current owner to transfer control of the contract to a newOwner.",
        "params": {
          "newOwner": "The address to transfer ownership to."
        }
      }
    }
  },
  "userdoc": {
    "methods": {}
  }
}