{
  "contractName": "ZombieOwnership",
  "abi": [
    {
      "anonymous": false,
      "inputs": [
        {
          "indexed": true,
          "internalType": "address",
          "name": "_owner",
          "type": "address"
        },
        {
          "indexed": true,
          "internalType": "address",
          "name": "_approved",
          "type": "address"
        },
        {
          "indexed": false,
          "internalType": "uint256",
          "name": "_tokenId",
          "type": "uint256"
        }
      ],
      "name": "Approval",
      "type": "event"
    },
    {
      "anonymous": false,
      "inputs": [
        {
          "indexed": false,
          "internalType": "uint256",
          "name": "zombieId",
          "type": "uint256"
        },
        {
          "indexed": false,
          "internalType": "string",
          "name": "name",
          "type": "string"
        },
        {
          "indexed": false,
          "internalType": "uint256",
          "name": "dna",
          "type": "uint256"
        }
      ],
      "name": "NewZombie",
      "type": "event"
    },
    {
      "anonymous": false,
      "inputs": [
        {
          "indexed": true,
          "internalType": "address",
          "name": "previousOwner",
          "type": "address"
        },
        {
          "indexed": true,
          "internalType": "address",
          "name": "newOwner",
          "type": "address"
        }
      ],
      "name": "OwnershipTransferred",
      "type": "event"
    },
    {
      "anonymous": false,
      "inputs": [
        {
          "indexed": true,
          "internalType": "address",
          "name": "_from",
          "type": "address"
        },
        {
          "indexed": true,
          "internalType": "address",
          "name": "_to",
          "type": "address"
        },
        {
          "indexed": false,
          "internalType": "uint256",
          "name": "_tokenId",
          "type": "uint256"
        }
      ],
      "name": "Transfer",
      "type": "event"
    },
    {
      "inputs": [
        {
          "internalType": "uint256",
          "name": "_zombieId",
          "type": "uint256"
        },
        {
          "internalType": "uint256",
          "name": "_targetId",
          "type": "uint256"
        }
      ],
      "name": "attack",
      "outputs": [],
      "stateMutability": "nonpayable",
      "type": "function"
    },
    {
      "inputs": [
        {
          "internalType": "uint256",
          "name": "_zombieId",
          "type": "uint256"
        },
        {
          "internalType": "uint256",
          "name": "_newDna",
          "type": "uint256"
        }
      ],
      "name": "changeDna",
      "outputs": [],
      "stateMutability": "nonpayable",
      "type": "function"
    },
    {
      "inputs": [
        {
          "internalType": "uint256",
          "name": "_zombieId",
          "type": "uint256"
        },
        {
          "internalType": "string",
          "name": "_newName",
          "type": "string"
        }
      ],
      "name": "changeName",
      "outputs": [],
      "stateMutability": "nonpayable",
      "type": "function"
    },
    {
      "inputs": [
        {
          "internalType": "string",
          "name": "_name",
          "type": "string"
        }
      ],
      "name": "createRandomZombie",
      "outputs": [],
      "stateMutability": "nonpayable",
      "type": "function"
    },
    {
      "inputs": [
        {
          "internalType": "uint256",
          "name": "_zombieId",
          "type": "uint256"
        },
        {
          "internalType": "uint256",
          "name": "_kittyId",
          "type": "uint256"
        }
      ],
      "name": "feedOnKitty",
      "outputs": [],
      "stateMutability": "nonpayable",
      "type": "function"
    },
    {
      "inputs": [
        {
          "internalType": "address",
          "name": "_owner",
          "type": "address"
        }
      ],
      "name": "getZombiesByOwner",
      "outputs": [
        {
          "internalType": "uint256[]",
          "name": "",
          "type": "uint256[]"
        }
      ],
      "stateMutability": "view",
      "type": "function",
      "constant": true
    },
    {
      "inputs": [
        {
          "internalType": "uint256",
          "name": "_zombieId",
          "type": "uint256"
        }
      ],
      "name": "levelUp",
      "outputs": [],
      "stateMutability": "payable",
      "type": "function",
      "payable": true
    },
    {
      "inputs": [],
      "name": "owner",
      "outputs": [
        {
          "internalType": "address payable",
          "name": "",
          "type": "address"
        }
      ],
      "stateMutability": "view",
      "type": "function",
      "constant": true
    },
    {
      "inputs": [
        {
          "internalType": "address",
          "name": "",
          "type": "address"
        }
      ],
      "name": "ownerZombieCount",
      "outputs": [
        {
          "internalType": "uint256",
          "name": "",
          "type": "uint256"
        }
      ],
      "stateMutability": "view",
      "type": "function",
      "constant": true
    },
    {
      "inputs": [
        {
          "internalType": "address",
          "name": "_address",
          "type": "address"
        }
      ],
      "name": "setKittyContractAddress",
      "outputs": [],
      "stateMutability": "nonpayable",
      "type": "function"
    },
    {
      "inputs": [
        {
          "internalType": "uint256",
          "name": "_fee",
          "type": "uint256"
        }
      ],
      "name": "setLevelUpFee",
      "outputs": [],
      "stateMutability": "nonpayable",
      "type": "function"
    },
    {
      "inputs": [
        {
          "internalType": "address payable",
          "name": "newOwner",
          "type": "address"
        }
      ],
      "name": "transferOwnership",
      "outputs": [],
      "stateMutability": "nonpayable",
      "type": "function"
    },
    {
      "inputs": [],
      "name": "withdraw",
      "outputs": [],
      "stateMutability": "nonpayable",
      "type": "function"
    },
    {
      "inputs": [
        {
          "internalType": "uint256",
          "name": "",
          "type": "uint256"
        }
      ],
      "name": "zombieToOwner",
      "outputs": [
        {
          "internalType": "address",
          "name": "",
          "type": "address"
        }
      ],
      "stateMutability": "view",
      "type": "function",
      "constant": true
    },
    {
      "inputs": [
        {
          "internalType": "uint256",
          "name": "",
          "type": "uint256"
        }
      ],
      "name": "zombies",
      "outputs": [
        {
          "internalType": "string",
          "name": "name",
          "type": "string"
        },
        {
          "internalType": "uint256",
          "name": "dna",
          "type": "uint256"
        },
        {
          "internalType": "uint32",
          "name": "level",
          "type": "uint32"
        },
        {
          "internalType": "uint32",
          "name": "readyTime",
          "type": "uint32"
        },
        {
          "internalType": "uint16",
          "name": "winCount",
          "type": "uint16"
        },
        {
          "internalType": "uint16",
          "name": "lossCount",
          "type": "uint16"
        }
      ],
      "stateMutability": "view",
      "type": "function",
      "constant": true
    },
    {
      "inputs": [
        {
          "internalType": "address",
          "name": "_owner",
          "type": "address"
        }
      ],
      "name": "balanceOf",
      "outputs": [
        {
          "internalType": "uint256",
          "name": "_balance",
          "type": "uint256"
        }
      ],
      "stateMutability": "view",
      "type": "function",
      "constant": true
    },
    {
      "inputs": [
        {
          "internalType": "uint256",
          "name": "_tokenId",
          "type": "uint256"
        }
      ],
      "name": "ownerOf",
      "outputs": [
        {
          "internalType": "address",
          "name": "_owner",
          "type": "address"
        }
      ],
      "stateMutability": "view",
      "type": "function",
      "constant": true
    },
    {
      "inputs": [
        {
          "internalType": "address",
          "name": "_to",
          "type": "address"
        },
        {
          "internalType": "uint256",
          "name": "_tokenId",
          "type": "uint256"
        }
      ],
      "name": "transfer",
      "outputs": [],
      "stateMutability": "nonpayable",
      "type": "function"
    },
    {
      "inputs": [
        {
          "internalType": "address",
          "name": "_to",
          "type": "address"
        },
        {
          "internalType": "uint256",
          "name": "_tokenId",
          "type": "uint256"
        }
      ],
      "name": "approve",
      "outputs": [],
      "stateMutability": "nonpayable",
      "type": "function"
    },
    {
      "inputs": [
        {
          "internalType": "uint256",
          "name": "_tokenId",
          "type": "uint256"
        }
      ],
      "name": "takeOwnership",
      "outputs": [],
      "stateMutability": "nonpayable",
      "type": "function"
    }
  ],
  "bytecode": "0x608060408190526010600155662386f26fc100006002556201518060035566038d7ea4c68000600855600060098190556046600a5580546001600160a01b03191633178082556001600160a01b0316917f8be0079c531659141344cd1fd0a4f28419497f9722a3daafe3b4186f6b6457e0908290a3611575806100836000396000f3fe60806040526004361061011f5760003560e01c80636352211e116100a0578063b2e6ceeb11610064578063b2e6ceeb14610564578063c39cbef11461058e578063ccf670f814610610578063e1fa76381461063a578063f2fde38b1461066a5761011f565b80636352211e1461040857806370a08231146104325780637bff0a01146104655780638da5cb5b14610516578063a9059cbb1461052b5761011f565b80633ccfd60b116100e75780633ccfd60b146102c75780634412e104146102dc578063528b7b8f1461035f5780635f4623f1146103a55780635faf2880146103d85761011f565b806301afd7e114610124578063095ea7b3146101695780630ce90ec2146101a457806317a7f4cc146101c15780632052465e146101f1575b600080fd5b34801561013057600080fd5b506101576004803603602081101561014757600080fd5b50356001600160a01b031661069d565b60408051918252519081900360200190f35b34801561017557600080fd5b506101a26004803603604081101561018c57600080fd5b506001600160a01b0381351690602001356106af565b005b6101a2600480360360208110156101ba57600080fd5b503561073b565b3480156101cd57600080fd5b506101a2600480360360408110156101e457600080fd5b5080359060200135610786565b3480156101fd57600080fd5b5061021b6004803603602081101561021457600080fd5b5035610835565b60408051602080820188905263ffffffff80881693830193909352918516606082015261ffff8085166080830152831660a082015260c080825288519082015287519091829160e08301918a019080838360005b8381101561028757818101518382015260200161026f565b50505050905090810190601f1680156102b45780820380516001836020036101000a031916815260200191505b5097505050505050505060405180910390f35b3480156102d357600080fd5b506101a2610918565b3480156102e857600080fd5b5061030f600480360360208110156102ff57600080fd5b50356001600160a01b031661096c565b60408051602080825283518183015283519192839290830191858101910280838360005b8381101561034b578181015183820152602001610333565b505050509050019250505060405180910390f35b34801561036b57600080fd5b506103896004803603602081101561038257600080fd5b5035610a21565b604080516001600160a01b039092168252519081900360200190f35b3480156103b157600080fd5b506101a2600480360360208110156103c857600080fd5b50356001600160a01b0316610a3c565b3480156103e457600080fd5b506101a2600480360360408110156103fb57600080fd5b5080359060200135610a75565b34801561041457600080fd5b506103896004803603602081101561042b57600080fd5b5035610afa565b34801561043e57600080fd5b506101576004803603602081101561045557600080fd5b50356001600160a01b0316610b15565b34801561047157600080fd5b506101a26004803603602081101561048857600080fd5b810190602081018135600160201b8111156104a257600080fd5b8201836020820111156104b457600080fd5b803590602001918460018302840111600160201b831117156104d557600080fd5b91908080601f016020809104026020016040519081016040528093929190818152602001838380828437600092019190915250929550610b30945050505050565b34801561052257600080fd5b50610389610b6b565b34801561053757600080fd5b506101a26004803603604081101561054e57600080fd5b506001600160a01b038135169060200135610b7a565b34801561057057600080fd5b506101a26004803603602081101561058757600080fd5b5035610baa565b34801561059a57600080fd5b506101a2600480360360408110156105b157600080fd5b81359190810190604081016020820135600160201b8111156105d257600080fd5b8201836020820111156105e457600080fd5b803590602001918460018302840111600160201b8311171561060557600080fd5b509092509050610be5565b34801561061c57600080fd5b506101a26004803603602081101561063357600080fd5b5035610c72565b34801561064657600080fd5b506101a26004803603604081101561065d57600080fd5b5080359060200135610c8e565b34801561067657600080fd5b506101a26004803603602081101561068d57600080fd5b50356001600160a01b0316610e0b565b60066020526000908152604090205481565b60008181526005602052604090205481906001600160a01b031633146106d457600080fd5b6000828152600b602090815260409182902080546001600160a01b0319166001600160a01b03871690811790915582518581529251909233927f8c5be1e5ebec7d5bd14f71427d1e84f3dd0314c0f7b2291e5b200ac8c7c3b92592918290030190a3505050565b600854341461074957600080fd5b6004818154811061075657fe5b60009182526020909120600260039092020101805463ffffffff8082166001011663ffffffff1990911617905550565b6007546040805163e98b7f4d60e01b81526004810184905290516000926001600160a01b03169163e98b7f4d91602480830192610140929190829003018186803b1580156107d357600080fd5b505afa1580156107e7573d6000803e3d6000fd5b505050506040513d6101408110156107fe57600080fd5b5061012001516040805180820190915260058152646b6974747960d81b60208201529091506108309084908390610e90565b505050565b6004818154811061084257fe5b60009182526020918290206003919091020180546040805160026001841615610100026000190190931692909204601f8101859004850283018501909152808252919350918391908301828280156108db5780601f106108b0576101008083540402835291602001916108db565b820191906000526020600020905b8154815290600101906020018083116108be57829003601f168201915b505050600184015460029094015492939263ffffffff8082169350600160201b820416915061ffff600160401b8204811691600160501b90041686565b6000546001600160a01b0316331461092f57600080fd5b600080546040516001600160a01b03909116914780156108fc02929091818181858888f19350505050158015610969573d6000803e3d6000fd5b50565b60608060066000846001600160a01b03166001600160a01b03168152602001908152602001600020546040519080825280602002602001820160405280156109be578160200160208202803883390190505b5090506000805b600454811015610a18576000818152600560205260409020546001600160a01b0386811691161415610a1057808383815181106109fe57fe5b60209081029190910101526001909101905b6001016109c5565b50909392505050565b6005602052600090815260409020546001600160a01b031681565b6000546001600160a01b03163314610a5357600080fd5b600780546001600160a01b0319166001600160a01b0392909216919091179055565b6014828160048281548110610a8657fe5b600091825260209091206002600390920201015463ffffffff161015610aab57600080fd5b60008481526005602052604090205484906001600160a01b03163314610ad057600080fd5b8360048681548110610ade57fe5b9060005260206000209060030201600101819055505050505050565b6000908152600560205260409020546001600160a01b031690565b6001600160a01b031660009081526006602052604090205490565b3360009081526006602052604090205415610b4a57600080fd5b6000610b5582610fe7565b9050606481069003610b678282611070565b5050565b6000546001600160a01b031681565b60008181526005602052604090205481906001600160a01b03163314610b9f57600080fd5b61083033848461126e565b6000818152600b60205260409020546001600160a01b03163314610bcd57600080fd5b6000610bd882610afa565b9050610b6781338461126e565b6002838160048281548110610bf657fe5b600091825260209091206002600390920201015463ffffffff161015610c1b57600080fd5b60008581526005602052604090205485906001600160a01b03163314610c4057600080fd5b848460048881548110610c4f57fe5b60009182526020909120610c699360039092020191611401565b50505050505050565b6000546001600160a01b03163314610c8957600080fd5b600855565b60008281526005602052604090205482906001600160a01b03163314610cb357600080fd5b600060048481548110610cc257fe5b90600052602060002090600302019050600060048481548110610ce157fe5b906000526020600020906003020190506000610cfd6064611343565b9050600a548111610da6576002808401805463ffffffff600161ffff600160401b8085048216830182160261ffff60401b1990941693909317828116820190921663ffffffff19909216919091179092559184018054600160501b8082048516840190941690930261ffff60501b19909316929092179091558201546040805180820190915260068152657a6f6d62696560d01b6020820152610da1918891610e90565b610e03565b60028084018054600161ffff600160501b8084048216830182160261ffff60501b19909316929092179092559184018054600160401b808204851690930190931690910261ffff60401b19909216919091179055610e0383611397565b505050505050565b6000546001600160a01b03163314610e2257600080fd5b6001600160a01b038116610e3557600080fd5b600080546040516001600160a01b03808516939216917f8be0079c531659141344cd1fd0a4f28419497f9722a3daafe3b4186f6b6457e091a3600080546001600160a01b0319166001600160a01b0392909216919091179055565b60008381526005602052604090205483906001600160a01b03163314610eb557600080fd5b600060048581548110610ec457fe5b90600052602060002090600302019050610edd816113c1565b610ee657600080fd5b6002548481610ef157fe5b069350600060028583600101540181610f0657fe5b0490506040516020018080646b6974747960d81b815250600501905060405160208183030381529060405280519060200120846040516020018082805190602001908083835b60208310610f6b5780518252601f199092019160209182019101610f4c565b6001836020036101000a038019825116818451168082178552505050505050905001915050604051602081830303815290604052805190602001201415610fb6576064810690036063015b610fde604051806040016040528060068152602001654e6f4e616d6560d01b81525082611070565b610e0382611397565b600080826040516020018082805190602001908083835b6020831061101d5780518252601f199092019160209182019101610ffe565b6001836020036101000a0380198251168184511680821785525050505050509050019150506040516020818303038152906040528051906020012060001c9050600254818161106857fe5b069392505050565b61107861147f565b506040805160c0810182528381526020808201849052600192820183905260038054420163ffffffff16606084015260006080840181905260a084018190526004805495860181559052825180519394859492027f8a35acfbc15ff81a39ae7d344fd709f28e8600b4aa8c65c6b64bfe7fe36bd19b01926110fe928492909101906114b4565b50602082810151600183810191909155604080850151600290940180546060808801516080808a015160a0909a015163ffffffff1990941663ffffffff998a161767ffffffff000000001916600160201b99909216989098021761ffff60401b1916600160401b61ffff998a16021761ffff60501b1916600160501b9890921697909702179055600454600019016000818152600585528281208054336001600160a01b0319909116811790915581526006855282812080549094019093558151818152918201889052818401868152895196830196909652885190957f88f026aacbbecc90c18411df4b1185fd8d9be2470f1962f192bf84a27d0704b79587958b958b95949285019291870191908190849084905b8381101561122c578181015183820152602001611214565b50505050905090810190601f1680156112595780820380516001836020036101000a031916815260200191505b5094505050505060405180910390a150505050565b6001600160a01b03821660009081526006602052604090205461129890600163ffffffff6113d916565b6001600160a01b0383166000908152600660205260408082209290925533815220546112cb90600163ffffffff6113ef16565b33600090815260066020908152604080832093909355838252600581529082902080546001600160a01b0319166001600160a01b03868116918217909255835185815293519093918716927fddf252ad1be2c89b69c2b068fc378daa952ba7f163c4a11628f55a4df523b3ef928290030190a3505050565b600980546001019081905560408051426020808301919091523360601b82840152605480830194909452825180830390940184526074909101909152815191012060009082908161139057fe5b0692915050565b60035442018160020160046101000a81548163ffffffff021916908363ffffffff16021790555050565b6002015442600160201b90910463ffffffff16111590565b6000828201838110156113e857fe5b9392505050565b6000828211156113fb57fe5b50900390565b828054600181600116156101000203166002900490600052602060002090601f016020900481019282601f106114425782800160ff1982351617855561146f565b8280016001018555821561146f579182015b8281111561146f578235825591602001919060010190611454565b5061147b929150611522565b5090565b6040805160c081018252606080825260006020830181905292820183905281018290526080810182905260a081019190915290565b828054600181600116156101000203166002900490600052602060002090601f016020900481019282601f106114f557805160ff191683800117855561146f565b8280016001018555821561146f579182015b8281111561146f578251825591602001919060010190611507565b61153c91905b8082111561147b5760008155600101611528565b9056fea26469706673582212203442c355cd3ddc8d7a74f0e0bc3e72bf8092caed46fcc587666fb95904b31d4364736f6c63430006000033",
  "source": "pragma solidity >=0.4.22 <0.9.0;\n\nimport \"./ZombieAttack.sol\";\nimport \"./ERC721.sol\";\nimport \"./SafeMath.sol\";\n\ncontract ZombieOwnership is ZombieAttack, ERC721 {\n\n  using SafeMath for uint256;\n\n  mapping (uint => address) zombieApprovals;\n\n  function balanceOf(address _owner)  public override view returns (uint256 _balance) {\n    return ownerZombieCount[_owner];\n  }\n\n  function ownerOf(uint256 _tokenId)  public override view returns (address _owner) {\n    return zombieToOwner[_tokenId];\n  }\n\n  function _transfer(address _from, address _to, uint256 _tokenId) private {\n    ownerZombieCount[_to] = ownerZombieCount[_to].add(1);\n    ownerZombieCount[msg.sender] = ownerZombieCount[msg.sender].sub(1);\n    zombieToOwner[_tokenId] = _to;\n    emit Transfer(_from, _to, _tokenId);\n  }\n\n  function transfer(address _to, uint256 _tokenId) public override onlyOwnerOf(_tokenId) {\n    _transfer(msg.sender, _to, _tokenId);\n  }\n\n  function approve(address _to, uint256 _tokenId) public override onlyOwnerOf(_tokenId) {\n    zombieApprovals[_tokenId] = _to;\n    emit Approval(msg.sender, _to, _tokenId);\n  }\n\n  function takeOwnership(uint256 _tokenId) public override {\n    require(zombieApprovals[_tokenId] == msg.sender);\n    address owner = ownerOf(_tokenId);\n    _transfer(owner, msg.sender, _tokenId);\n  }\n}\n",
  "sourcePath": "/Users/ricardoteixeira/Documents/code/solidity/react-zombies/src/solidity/contracts/ZombieOwnership.sol",
  "compiler": {
    "name": "solc",
    "version": "0.6.0+commit.26b70077.Emscripten.clang"
  },
  "schemaVersion": "3.3.4",
  "updatedAt": "2021-03-23T01:52:26.101Z",
  "networkType": "ethereum",
  "devdoc": {
    "methods": {
      "transferOwnership(address)": {
        "details": "Allows the current owner to transfer control of the contract to a newOwner.",
        "params": {
          "newOwner": "The address to transfer ownership to."
        }
      }
    }
  },
  "userdoc": {
    "methods": {}
  }
}