{
  "contractName": "ZombieHelper",
  "abi": [
    {
      "anonymous": false,
      "inputs": [
        {
          "indexed": false,
          "internalType": "uint256",
          "name": "zombieId",
          "type": "uint256"
        },
        {
          "indexed": false,
          "internalType": "string",
          "name": "name",
          "type": "string"
        },
        {
          "indexed": false,
          "internalType": "uint256",
          "name": "dna",
          "type": "uint256"
        }
      ],
      "name": "NewZombie",
      "type": "event"
    },
    {
      "anonymous": false,
      "inputs": [
        {
          "indexed": true,
          "internalType": "address",
          "name": "previousOwner",
          "type": "address"
        },
        {
          "indexed": true,
          "internalType": "address",
          "name": "newOwner",
          "type": "address"
        }
      ],
      "name": "OwnershipTransferred",
      "type": "event"
    },
    {
      "inputs": [
        {
          "internalType": "string",
          "name": "_name",
          "type": "string"
        }
      ],
      "name": "createRandomZombie",
      "outputs": [],
      "stateMutability": "nonpayable",
      "type": "function"
    },
    {
      "inputs": [],
      "name": "debug1",
      "outputs": [
        {
          "internalType": "string",
          "name": "",
          "type": "string"
        }
      ],
      "stateMutability": "view",
      "type": "function",
      "constant": true
    },
    {
      "inputs": [
        {
          "internalType": "uint256",
          "name": "_zombieId",
          "type": "uint256"
        },
        {
          "internalType": "uint256",
          "name": "_kittyId",
          "type": "uint256"
        }
      ],
      "name": "feedOnKitty",
      "outputs": [],
      "stateMutability": "nonpayable",
      "type": "function"
    },
    {
      "inputs": [],
      "name": "owner",
      "outputs": [
        {
          "internalType": "address payable",
          "name": "",
          "type": "address"
        }
      ],
      "stateMutability": "view",
      "type": "function",
      "constant": true
    },
    {
      "inputs": [
        {
          "internalType": "address",
          "name": "",
          "type": "address"
        }
      ],
      "name": "ownerZombieCount",
      "outputs": [
        {
          "internalType": "uint256",
          "name": "",
          "type": "uint256"
        }
      ],
      "stateMutability": "view",
      "type": "function",
      "constant": true
    },
    {
      "inputs": [
        {
          "internalType": "address",
          "name": "_address",
          "type": "address"
        }
      ],
      "name": "setKittyContractAddress",
      "outputs": [],
      "stateMutability": "nonpayable",
      "type": "function"
    },
    {
      "inputs": [
        {
          "internalType": "address payable",
          "name": "newOwner",
          "type": "address"
        }
      ],
      "name": "transferOwnership",
      "outputs": [],
      "stateMutability": "nonpayable",
      "type": "function"
    },
    {
      "inputs": [
        {
          "internalType": "uint256",
          "name": "",
          "type": "uint256"
        }
      ],
      "name": "zombieToOwner",
      "outputs": [
        {
          "internalType": "address",
          "name": "",
          "type": "address"
        }
      ],
      "stateMutability": "view",
      "type": "function",
      "constant": true
    },
    {
      "inputs": [
        {
          "internalType": "uint256",
          "name": "",
          "type": "uint256"
        }
      ],
      "name": "zombies",
      "outputs": [
        {
          "internalType": "string",
          "name": "name",
          "type": "string"
        },
        {
          "internalType": "uint256",
          "name": "dna",
          "type": "uint256"
        },
        {
          "internalType": "uint32",
          "name": "level",
          "type": "uint32"
        },
        {
          "internalType": "uint32",
          "name": "readyTime",
          "type": "uint32"
        },
        {
          "internalType": "uint16",
          "name": "winCount",
          "type": "uint16"
        },
        {
          "internalType": "uint16",
          "name": "lossCount",
          "type": "uint16"
        }
      ],
      "stateMutability": "view",
      "type": "function",
      "constant": true
    },
    {
      "inputs": [],
      "name": "withdraw",
      "outputs": [],
      "stateMutability": "nonpayable",
      "type": "function"
    },
    {
      "inputs": [
        {
          "internalType": "uint256",
          "name": "_fee",
          "type": "uint256"
        }
      ],
      "name": "setLevelUpFee",
      "outputs": [],
      "stateMutability": "nonpayable",
      "type": "function"
    },
    {
      "inputs": [
        {
          "internalType": "uint256",
          "name": "_zombieId",
          "type": "uint256"
        }
      ],
      "name": "levelUp",
      "outputs": [],
      "stateMutability": "payable",
      "type": "function",
      "payable": true
    },
    {
      "inputs": [
        {
          "internalType": "uint256",
          "name": "_zombieId",
          "type": "uint256"
        },
        {
          "internalType": "string",
          "name": "_newName",
          "type": "string"
        }
      ],
      "name": "changeName",
      "outputs": [],
      "stateMutability": "nonpayable",
      "type": "function"
    },
    {
      "inputs": [
        {
          "internalType": "uint256",
          "name": "_zombieId",
          "type": "uint256"
        },
        {
          "internalType": "uint256",
          "name": "_newDna",
          "type": "uint256"
        }
      ],
      "name": "changeDna",
      "outputs": [],
      "stateMutability": "nonpayable",
      "type": "function"
    },
    {
      "inputs": [
        {
          "internalType": "address",
          "name": "_owner",
          "type": "address"
        }
      ],
      "name": "getZombiesByOwner",
      "outputs": [
        {
          "internalType": "uint256[]",
          "name": "",
          "type": "uint256[]"
        }
      ],
      "stateMutability": "view",
      "type": "function",
      "constant": true
    }
  ],
  "bytecode": "0x6010600155662386f26fc100006002556201518060035560c0604052600b60808190526a537570657220447562756760a81b60a0908152610043916004919061009d565b5066038d7ea4c68000600955600080546001600160a01b03191633178082556040516001600160a01b039190911691907f8be0079c531659141344cd1fd0a4f28419497f9722a3daafe3b4186f6b6457e0908290a3610138565b828054600181600116156101000203166002900490600052602060002090601f016020900481019282601f106100de57805160ff191683800117855561010b565b8280016001018555821561010b579182015b8281111561010b5782518255916020019190600101906100f0565b5061011792915061011b565b5090565b61013591905b808211156101175760008155600101610121565b90565b61113f80620001486000396000f3fe6080604052600436106100e85760003560e01c80635f4623f11161008a5780638da5cb5b116100595780638da5cb5b146104d3578063c39cbef1146104e8578063ccf670f81461056a578063f2fde38b14610594576100e8565b80635f4623f1146103355780635faf2880146103685780637bff0a01146103985780637dc7c5a514610449576100e8565b80632052465e116100c65780632052465e146101815780633ccfd60b146102575780634412e1041461026c578063528b7b8f146102ef576100e8565b806301afd7e1146100ed5780630ce90ec21461013257806317a7f4cc14610151575b600080fd5b3480156100f957600080fd5b506101206004803603602081101561011057600080fd5b50356001600160a01b03166105c7565b60408051918252519081900360200190f35b61014f6004803603602081101561014857600080fd5b50356105d9565b005b34801561015d57600080fd5b5061014f6004803603604081101561017457600080fd5b5080359060200135610624565b34801561018d57600080fd5b506101ab600480360360208110156101a457600080fd5b50356106d3565b60408051602080820188905263ffffffff80881693830193909352918516606082015261ffff8085166080830152831660a082015260c080825288519082015287519091829160e08301918a019080838360005b838110156102175781810151838201526020016101ff565b50505050905090810190601f1680156102445780820380516001836020036101000a031916815260200191505b5097505050505050505060405180910390f35b34801561026357600080fd5b5061014f6107b6565b34801561027857600080fd5b5061029f6004803603602081101561028f57600080fd5b50356001600160a01b031661080a565b60408051602080825283518183015283519192839290830191858101910280838360005b838110156102db5781810151838201526020016102c3565b505050509050019250505060405180910390f35b3480156102fb57600080fd5b506103196004803603602081101561031257600080fd5b50356108bf565b604080516001600160a01b039092168252519081900360200190f35b34801561034157600080fd5b5061014f6004803603602081101561035857600080fd5b50356001600160a01b03166108da565b34801561037457600080fd5b5061014f6004803603604081101561038b57600080fd5b5080359060200135610913565b3480156103a457600080fd5b5061014f600480360360208110156103bb57600080fd5b810190602081018135600160201b8111156103d557600080fd5b8201836020820111156103e757600080fd5b803590602001918460018302840111600160201b8311171561040857600080fd5b91908080601f016020809104026020016040519081016040528093929190818152602001838380828437600092019190915250929550610998945050505050565b34801561045557600080fd5b5061045e6109d3565b6040805160208082528351818301528351919283929083019185019080838360005b83811015610498578181015183820152602001610480565b50505050905090810190601f1680156104c55780820380516001836020036101000a031916815260200191505b509250505060405180910390f35b3480156104df57600080fd5b50610319610a61565b3480156104f457600080fd5b5061014f6004803603604081101561050b57600080fd5b81359190810190604081016020820135600160201b81111561052c57600080fd5b82018360208201111561053e57600080fd5b803590602001918460018302840111600160201b8311171561055f57600080fd5b509092509050610a70565b34801561057657600080fd5b5061014f6004803603602081101561058d57600080fd5b5035610afd565b3480156105a057600080fd5b5061014f600480360360208110156105b757600080fd5b50356001600160a01b0316610b19565b60076020526000908152604090205481565b60095434146105e757600080fd5b600581815481106105f457fe5b60009182526020909120600260039092020101805463ffffffff8082166001011663ffffffff1990911617905550565b6008546040805163e98b7f4d60e01b81526004810184905290516000926001600160a01b03169163e98b7f4d91602480830192610140929190829003018186803b15801561067157600080fd5b505afa158015610685573d6000803e3d6000fd5b505050506040513d61014081101561069c57600080fd5b5061012001516040805180820190915260058152646b6974747960d81b60208201529091506106ce9084908390610b9e565b505050565b600581815481106106e057fe5b60009182526020918290206003919091020180546040805160026001841615610100026000190190931692909204601f8101859004850283018501909152808252919350918391908301828280156107795780601f1061074e57610100808354040283529160200191610779565b820191906000526020600020905b81548152906001019060200180831161075c57829003601f168201915b505050600184015460029094015492939263ffffffff8082169350600160201b820416915061ffff600160401b8204811691600160501b90041686565b6000546001600160a01b031633146107cd57600080fd5b600080546040516001600160a01b03909116914780156108fc02929091818181858888f19350505050158015610807573d6000803e3d6000fd5b50565b60608060076000846001600160a01b03166001600160a01b031681526020019081526020016000205460405190808252806020026020018201604052801561085c578160200160208202803883390190505b5090506000805b6005548110156108b6576000818152600660205260409020546001600160a01b03868116911614156108ae578083838151811061089c57fe5b60209081029190910101526001909101905b600101610863565b50909392505050565b6006602052600090815260409020546001600160a01b031681565b6000546001600160a01b031633146108f157600080fd5b600880546001600160a01b0319166001600160a01b0392909216919091179055565b601482816005828154811061092457fe5b600091825260209091206002600390920201015463ffffffff16101561094957600080fd5b60008481526006602052604090205484906001600160a01b0316331461096e57600080fd5b836005868154811061097c57fe5b9060005260206000209060030201600101819055505050505050565b33600090815260076020526040902054156109b257600080fd5b60006109bd82610cfd565b90506064810690036109cf8282610d86565b5050565b6004805460408051602060026001851615610100026000190190941693909304601f81018490048402820184019092528181529291830182828015610a595780601f10610a2e57610100808354040283529160200191610a59565b820191906000526020600020905b815481529060010190602001808311610a3c57829003601f168201915b505050505081565b6000546001600160a01b031681565b6002838160058281548110610a8157fe5b600091825260209091206002600390920201015463ffffffff161015610aa657600080fd5b60008581526006602052604090205485906001600160a01b03163314610acb57600080fd5b848460058881548110610ada57fe5b60009182526020909120610af49360039092020191610fcb565b50505050505050565b6000546001600160a01b03163314610b1457600080fd5b600955565b6000546001600160a01b03163314610b3057600080fd5b6001600160a01b038116610b4357600080fd5b600080546040516001600160a01b03808516939216917f8be0079c531659141344cd1fd0a4f28419497f9722a3daafe3b4186f6b6457e091a3600080546001600160a01b0319166001600160a01b0392909216919091179055565b60008381526006602052604090205483906001600160a01b03163314610bc357600080fd5b600060058581548110610bd257fe5b90600052602060002090600302019050610beb81610f89565b610bf457600080fd5b6002548481610bff57fe5b069350600060028583600101540181610c1457fe5b0490506040516020018080646b6974747960d81b815250600501905060405160208183030381529060405280519060200120846040516020018082805190602001908083835b60208310610c795780518252601f199092019160209182019101610c5a565b6001836020036101000a038019825116818451168082178552505050505050905001915050604051602081830303815290604052805190602001201415610cc4576064810690036063015b610cec604051806040016040528060068152602001654e6f4e616d6560d01b81525082610d86565b610cf582610fa1565b505050505050565b600080826040516020018082805190602001908083835b60208310610d335780518252601f199092019160209182019101610d14565b6001836020036101000a0380198251168184511680821785525050505050509050019150506040516020818303038152906040528051906020012060001c90506002548181610d7e57fe5b069392505050565b610d8e611049565b506040805160c0810182528381526020808201849052600192820183905260038054420163ffffffff16606084015260006080840181905260a084018190526005805495860181559052825180519394859492027f036b6384b5eca791c62761152d0c79bb0604c104a5fb6f4eb0703f3154bb3db00192610e149284929091019061107e565b50602082810151600183810191909155604080850151600290940180546060808801516080808a015160a0909a015163ffffffff1990941663ffffffff998a161767ffffffff000000001916600160201b99909216989098021769ffff00000000000000001916600160401b61ffff998a16021761ffff60501b1916600160501b9890921697909702179055600554600019016000818152600685528281208054336001600160a01b0319909116811790915581526007855282812080549094019093558151818152918201889052818401868152895196830196909652885190957f88f026aacbbecc90c18411df4b1185fd8d9be2470f1962f192bf84a27d0704b79587958b958b95949285019291870191908190849084905b83811015610f47578181015183820152602001610f2f565b50505050905090810190601f168015610f745780820380516001836020036101000a031916815260200191505b5094505050505060405180910390a150505050565b6002015442600160201b90910463ffffffff16111590565b60035442018160020160046101000a81548163ffffffff021916908363ffffffff16021790555050565b828054600181600116156101000203166002900490600052602060002090601f016020900481019282601f1061100c5782800160ff19823516178555611039565b82800160010185558215611039579182015b8281111561103957823582559160200191906001019061101e565b506110459291506110ec565b5090565b6040805160c081018252606080825260006020830181905292820183905281018290526080810182905260a081019190915290565b828054600181600116156101000203166002900490600052602060002090601f016020900481019282601f106110bf57805160ff1916838001178555611039565b82800160010185558215611039579182015b828111156110395782518255916020019190600101906110d1565b61110691905b8082111561104557600081556001016110f2565b9056fea26469706673582212203af8c0ba81434805aaba98c49edbfa2b22923787e32fc3148fe941a95e88c8d764736f6c63430006000033",
  "source": "pragma solidity >=0.4.22 <0.9.0;\n\nimport \"./ZombieFeeding.sol\";\n\ncontract ZombieHelper is ZombieFeeding {\n\n  uint levelUpFee = 0.001 ether;\n\n  modifier aboveLevel(uint _level, uint _zombieId) {\n    require(zombies[_zombieId].level >= _level);\n    _;\n  }\n\n  function withdraw() external onlyOwner {\n    owner.transfer(address(this).balance);\n  }\n\n  function setLevelUpFee(uint _fee) external onlyOwner {\n    levelUpFee = _fee;\n  }\n\n  function levelUp(uint _zombieId) external payable {\n    require(msg.value == levelUpFee);\n    zombies[_zombieId].level++;\n  }\n\n  function changeName(uint _zombieId, string calldata _newName ) external aboveLevel(2, _zombieId) onlyOwnerOf(_zombieId) {\n    zombies[_zombieId].name = _newName;\n  }\n\n  function changeDna(uint _zombieId, uint _newDna) external aboveLevel(20, _zombieId) onlyOwnerOf(_zombieId) {\n    zombies[_zombieId].dna = _newDna;\n  }\n\n  function getZombiesByOwner(address _owner) external view returns(uint[] memory) {\n    uint[] memory result = new uint[](ownerZombieCount[_owner]);\n    uint counter = 0;\n    for (uint i = 0; i < zombies.length; i++) {\n      if (zombieToOwner[i] == _owner) {\n        result[counter] = i;\n        counter++;\n      }\n    }\n    return result;\n  }\n\n}\n",
  "sourcePath": "/Users/ricardoteixeira/Documents/code/solidity/react-zombies/src/solidity/contracts/ZombieHelper.sol",
  "compiler": {
    "name": "solc",
    "version": "0.6.0+commit.26b70077.Emscripten.clang"
  },
  "schemaVersion": "3.3.4",
  "updatedAt": "2021-03-24T02:21:13.941Z",
  "networkType": "ethereum",
  "devdoc": {
    "methods": {
      "transferOwnership(address)": {
        "details": "Allows the current owner to transfer control of the contract to a newOwner.",
        "params": {
          "newOwner": "The address to transfer ownership to."
        }
      }
    }
  },
  "userdoc": {
    "methods": {}
  }
}